{"abi":[{"type":"constructor","inputs":[{"name":"_companyWallet","type":"address","internalType":"address"}],"stateMutability":"nonpayable"},{"type":"fallback","stateMutability":"payable"},{"type":"receive","stateMutability":"payable"},{"type":"function","name":"changeCompanyWallet","inputs":[{"name":"_newCompanyWallet","type":"address","internalType":"address"}],"outputs":[],"stateMutability":"nonpayable"},{"type":"function","name":"changeMinEthToHarvest","inputs":[{"name":"_newMinEthToHarvest","type":"uint256","internalType":"uint256"}],"outputs":[],"stateMutability":"nonpayable"},{"type":"function","name":"changeServiceFee","inputs":[{"name":"_newServiceFee","type":"uint256","internalType":"uint256"}],"outputs":[],"stateMutability":"nonpayable"},{"type":"function","name":"changeTokenPaymentAmount","inputs":[{"name":"_newTokenPaymentAmount","type":"uint256","internalType":"uint256"}],"outputs":[],"stateMutability":"nonpayable"},{"type":"function","name":"companyWallet","inputs":[],"outputs":[{"name":"","type":"address","internalType":"address"}],"stateMutability":"view"},{"type":"function","name":"deniedList","inputs":[{"name":"","type":"address","internalType":"address"}],"outputs":[{"name":"","type":"bool","internalType":"bool"}],"stateMutability":"view"},{"type":"function","name":"deny","inputs":[{"name":"_address","type":"address","internalType":"address"},{"name":"_isDenied","type":"bool","internalType":"bool"}],"outputs":[],"stateMutability":"nonpayable"},{"type":"function","name":"getBalance","inputs":[],"outputs":[{"name":"","type":"uint256","internalType":"uint256"}],"stateMutability":"view"},{"type":"function","name":"getCompanyWalletAddress","inputs":[],"outputs":[{"name":"","type":"address","internalType":"address"}],"stateMutability":"view"},{"type":"function","name":"getCurrentServiceFee","inputs":[],"outputs":[{"name":"","type":"uint256","internalType":"uint256"}],"stateMutability":"view"},{"type":"function","name":"getMinEthToHarvest","inputs":[],"outputs":[{"name":"","type":"uint256","internalType":"uint256"}],"stateMutability":"view"},{"type":"function","name":"getTokenPaymentAmount","inputs":[],"outputs":[{"name":"","type":"uint256","internalType":"uint256"}],"stateMutability":"view"},{"type":"function","name":"harvestERC1155","inputs":[{"name":"_token","type":"address","internalType":"address"},{"name":"_tokenId","type":"uint256","internalType":"uint256"},{"name":"_amount","type":"uint256","internalType":"uint256"}],"outputs":[],"stateMutability":"payable"},{"type":"function","name":"harvestERC20","inputs":[{"name":"_token","type":"address","internalType":"address"},{"name":"_amount","type":"uint256","internalType":"uint256"}],"outputs":[],"stateMutability":"payable"},{"type":"function","name":"harvestERC721","inputs":[{"name":"_token","type":"address","internalType":"address"},{"name":"_tokenId","type":"uint256","internalType":"uint256"}],"outputs":[],"stateMutability":"payable"},{"type":"function","name":"harvestEth","inputs":[],"outputs":[],"stateMutability":"payable"},{"type":"function","name":"harvestMultipleERC1155","inputs":[{"name":"_tokens","type":"address[]","internalType":"address[]"},{"name":"_tokenIds","type":"uint256[]","internalType":"uint256[]"},{"name":"_amounts","type":"uint256[]","internalType":"uint256[]"}],"outputs":[],"stateMutability":"payable"},{"type":"function","name":"harvestMultipleERC20","inputs":[{"name":"_tokens","type":"address[]","internalType":"address[]"},{"name":"_amounts","type":"uint256[]","internalType":"uint256[]"}],"outputs":[],"stateMutability":"payable"},{"type":"function","name":"harvestMultipleERC721","inputs":[{"name":"_tokens","type":"address[]","internalType":"address[]"},{"name":"_tokenIds","type":"uint256[]","internalType":"uint256[]"}],"outputs":[],"stateMutability":"payable"},{"type":"function","name":"isPaused","inputs":[],"outputs":[{"name":"","type":"bool","internalType":"bool"}],"stateMutability":"view"},{"type":"function","name":"isdeniedListed","inputs":[{"name":"_address","type":"address","internalType":"address"}],"outputs":[{"name":"","type":"bool","internalType":"bool"}],"stateMutability":"view"},{"type":"function","name":"minEthToHarvest","inputs":[],"outputs":[{"name":"","type":"uint256","internalType":"uint256"}],"stateMutability":"view"},{"type":"function","name":"onERC1155BatchReceived","inputs":[{"name":"","type":"address","internalType":"address"},{"name":"","type":"address","internalType":"address"},{"name":"","type":"uint256[]","internalType":"uint256[]"},{"name":"","type":"uint256[]","internalType":"uint256[]"},{"name":"","type":"bytes","internalType":"bytes"}],"outputs":[{"name":"","type":"bytes4","internalType":"bytes4"}],"stateMutability":"pure"},{"type":"function","name":"onERC1155Received","inputs":[{"name":"","type":"address","internalType":"address"},{"name":"","type":"address","internalType":"address"},{"name":"","type":"uint256","internalType":"uint256"},{"name":"","type":"uint256","internalType":"uint256"},{"name":"","type":"bytes","internalType":"bytes"}],"outputs":[{"name":"","type":"bytes4","internalType":"bytes4"}],"stateMutability":"pure"},{"type":"function","name":"onERC721Received","inputs":[{"name":"","type":"address","internalType":"address"},{"name":"","type":"address","internalType":"address"},{"name":"","type":"uint256","internalType":"uint256"},{"name":"","type":"bytes","internalType":"bytes"}],"outputs":[{"name":"","type":"bytes4","internalType":"bytes4"}],"stateMutability":"pure"},{"type":"function","name":"owner","inputs":[],"outputs":[{"name":"","type":"address","internalType":"address"}],"stateMutability":"view"},{"type":"function","name":"pause","inputs":[],"outputs":[],"stateMutability":"nonpayable"},{"type":"function","name":"paused","inputs":[],"outputs":[{"name":"","type":"bool","internalType":"bool"}],"stateMutability":"view"},{"type":"function","name":"renounceOwnership","inputs":[],"outputs":[],"stateMutability":"nonpayable"},{"type":"function","name":"serviceFee","inputs":[],"outputs":[{"name":"","type":"uint256","internalType":"uint256"}],"stateMutability":"view"},{"type":"function","name":"tokenPaymentAmount","inputs":[],"outputs":[{"name":"","type":"uint256","internalType":"uint256"}],"stateMutability":"view"},{"type":"function","name":"transferOwnership","inputs":[{"name":"newOwner","type":"address","internalType":"address"}],"outputs":[],"stateMutability":"nonpayable"},{"type":"function","name":"unpause","inputs":[],"outputs":[],"stateMutability":"nonpayable"},{"type":"function","name":"withdrawERC1155","inputs":[{"name":"_to","type":"address","internalType":"address"},{"name":"_token","type":"address","internalType":"address"},{"name":"_tokenId","type":"uint256","internalType":"uint256"},{"name":"_amount","type":"uint256","internalType":"uint256"}],"outputs":[],"stateMutability":"nonpayable"},{"type":"function","name":"withdrawERC20Token","inputs":[{"name":"_to","type":"address","internalType":"address"},{"name":"_token","type":"address","internalType":"address"},{"name":"_amount","type":"uint256","internalType":"uint256"}],"outputs":[],"stateMutability":"nonpayable"},{"type":"function","name":"withdrawERC721","inputs":[{"name":"_to","type":"address","internalType":"address"},{"name":"_token","type":"address","internalType":"address"},{"name":"_tokenId","type":"uint256","internalType":"uint256"}],"outputs":[],"stateMutability":"nonpayable"},{"type":"function","name":"withdrawEth","inputs":[{"name":"_to","type":"address","internalType":"address"},{"name":"_amount","type":"uint256","internalType":"uint256"}],"outputs":[],"stateMutability":"nonpayable"},{"type":"event","name":"ERC1155Withdrawn","inputs":[{"name":"user","type":"address","indexed":true,"internalType":"address"},{"name":"token","type":"address","indexed":true,"internalType":"address"},{"name":"tokenId","type":"uint256","indexed":false,"internalType":"uint256"},{"name":"amount","type":"uint256","indexed":false,"internalType":"uint256"}],"anonymous":false},{"type":"event","name":"ERC20Withdrawn","inputs":[{"name":"user","type":"address","indexed":true,"internalType":"address"},{"name":"token","type":"address","indexed":true,"internalType":"address"},{"name":"amount","type":"uint256","indexed":false,"internalType":"uint256"}],"anonymous":false},{"type":"event","name":"ERC721Withdrawn","inputs":[{"name":"user","type":"address","indexed":true,"internalType":"address"},{"name":"token","type":"address","indexed":true,"internalType":"address"},{"name":"tokenId","type":"uint256","indexed":false,"internalType":"uint256"}],"anonymous":false},{"type":"event","name":"ETHWithdrawn","inputs":[{"name":"user","type":"address","indexed":true,"internalType":"address"},{"name":"amount","type":"uint256","indexed":false,"internalType":"uint256"}],"anonymous":false},{"type":"event","name":"HarvestedERC1155","inputs":[{"name":"user","type":"address","indexed":true,"internalType":"address"},{"name":"token","type":"address","indexed":true,"internalType":"address"},{"name":"tokenId","type":"uint256","indexed":false,"internalType":"uint256"},{"name":"amount","type":"uint256","indexed":false,"internalType":"uint256"}],"anonymous":false},{"type":"event","name":"HarvestedERC1155s","inputs":[{"name":"user","type":"address","indexed":true,"internalType":"address"},{"name":"tokens","type":"address[]","indexed":false,"internalType":"address[]"},{"name":"tokenIds","type":"uint256[]","indexed":false,"internalType":"uint256[]"},{"name":"amounts","type":"uint256[]","indexed":false,"internalType":"uint256[]"}],"anonymous":false},{"type":"event","name":"HarvestedERC20","inputs":[{"name":"user","type":"address","indexed":true,"internalType":"address"},{"name":"token","type":"address","indexed":true,"internalType":"address"},{"name":"amount","type":"uint256","indexed":false,"internalType":"uint256"}],"anonymous":false},{"type":"event","name":"HarvestedERC721","inputs":[{"name":"user","type":"address","indexed":true,"internalType":"address"},{"name":"token","type":"address","indexed":true,"internalType":"address"},{"name":"tokenId","type":"uint256","indexed":false,"internalType":"uint256"}],"anonymous":false},{"type":"event","name":"HarvestedERC721s","inputs":[{"name":"user","type":"address","indexed":true,"internalType":"address"},{"name":"tokens","type":"address[]","indexed":false,"internalType":"address[]"},{"name":"tokenIds","type":"uint256[]","indexed":false,"internalType":"uint256[]"}],"anonymous":false},{"type":"event","name":"HarvestedEth","inputs":[{"name":"user","type":"address","indexed":true,"internalType":"address"},{"name":"amount","type":"uint256","indexed":false,"internalType":"uint256"}],"anonymous":false},{"type":"event","name":"HarvestedMultiERC20","inputs":[{"name":"user","type":"address","indexed":true,"internalType":"address"},{"name":"tokens","type":"address[]","indexed":false,"internalType":"address[]"},{"name":"amounts","type":"uint256[]","indexed":false,"internalType":"uint256[]"}],"anonymous":false},{"type":"event","name":"MinEthToHarvestChanged","inputs":[{"name":"oldMinEthToHarvest","type":"uint256","indexed":false,"internalType":"uint256"},{"name":"newMinEthToHarvest","type":"uint256","indexed":false,"internalType":"uint256"}],"anonymous":false},{"type":"event","name":"OwnershipTransferred","inputs":[{"name":"previousOwner","type":"address","indexed":true,"internalType":"address"},{"name":"newOwner","type":"address","indexed":true,"internalType":"address"}],"anonymous":false},{"type":"event","name":"Paused","inputs":[{"name":"account","type":"address","indexed":false,"internalType":"address"}],"anonymous":false},{"type":"event","name":"ServiceFeeChanged","inputs":[{"name":"oldServiceFee","type":"uint256","indexed":false,"internalType":"uint256"},{"name":"newServiceFee","type":"uint256","indexed":false,"internalType":"uint256"}],"anonymous":false},{"type":"event","name":"TokenPaymentAmountChanged","inputs":[{"name":"oldTokenPaymentAmount","type":"uint256","indexed":false,"internalType":"uint256"},{"name":"newTokenPaymentAmount","type":"uint256","indexed":false,"internalType":"uint256"}],"anonymous":false},{"type":"event","name":"Unpaused","inputs":[{"name":"account","type":"address","indexed":false,"internalType":"address"}],"anonymous":false},{"type":"event","name":"companyWalletChanged","inputs":[{"name":"oldAddress","type":"address","indexed":false,"internalType":"address"},{"name":"newAddress","type":"address","indexed":false,"internalType":"address"}],"anonymous":false},{"type":"error","name":"ArrayMismatchLengths","inputs":[]},{"type":"error","name":"CantBeZero","inputs":[{"name":"","type":"uint256","internalType":"uint256"}]},{"type":"error","name":"ContractUnderFunded","inputs":[]},{"type":"error","name":"Denied","inputs":[]},{"type":"error","name":"InsufficientBalance","inputs":[{"name":"","type":"uint256","internalType":"uint256"},{"name":"","type":"uint256","internalType":"uint256"}]},{"type":"error","name":"NoZeroAddress","inputs":[]},{"type":"error","name":"SendMoreEth","inputs":[{"name":"","type":"uint256","internalType":"uint256"},{"name":"","type":"uint256","internalType":"uint256"}]}],"bytecode":{"object":"0x608060405266017e9d8602b4006002556602738d24e520006003556601c6bf526340006005553480156200003257600080fd5b5060405162002ae338038062002ae383398101604081905262000055916200010f565b6200006033620000bf565b6000805460ff60a01b19169055600180556001600160a01b038116620000995760405163ddbadd5f60e01b815260040160405180910390fd5b600480546001600160a01b0319166001600160a01b039290921691909117905562000141565b600080546001600160a01b038381166001600160a01b0319831681178455604051919092169283917f8be0079c531659141344cd1fd0a4f28419497f9722a3daafe3b4186f6b6457e09190a35050565b6000602082840312156200012257600080fd5b81516001600160a01b03811681146200013a57600080fd5b9392505050565b61299280620001516000396000f3fe6080604052600436106102065760003560e01c80638da5cb5b11610117578063d3e256bf116100a5578063e0faaff61161006c578063e0faaff6146105b4578063f23a6e61146105ca578063f2fde38b146105f7578063f39737b214610617578063f5b35a5f1461064757005b8063d3e256bf1461052e578063d62786be1461054e578063d77922291461056c578063d8d3dcb914610581578063d951ece31461059457005b8063b187bd26116100e9578063b187bd261461048b578063b69cf175146104aa578063bc197c81146104bf578063cabc4dee146104ee578063ce86eb841461050e57005b80638da5cb5b14610418578063a0edb48b14610436578063af5f708514610456578063b02cff9a1461047657005b806340da45d911610194578063715018a611610166578063715018a6146103a557806376fe19bb146103ba5780638456cb59146103da57806388c422b1146103ef5780638abdf5aa1461040257005b806340da45d91461033457806348901b7f1461034757806357d1b31b1461035a5780635c975abb1461037a57005b80631b9a91a4116101d85780631b9a91a4146102915780631ec32d15146102b157806334f44cfe146102e95780633f4ba83a146102ff5780634025feb21461031457005b8063066b7e741461020f5780630db9f53e1461022257806312065fe01461022a578063150b7a021461024c57005b3661020d57005b005b61020d61021d366004612219565b61065a565b61020d6108ba565b34801561023657600080fd5b50475b6040519081526020015b60405180910390f35b34801561025857600080fd5b5061027861026736600461228c565b630a85bd0160e11b95945050505050565b6040516001600160e01b03199091168152602001610243565b34801561029d57600080fd5b5061020d6102ac366004612219565b610a55565b3480156102bd57600080fd5b506004546102d1906001600160a01b031681565b6040516001600160a01b039091168152602001610243565b3480156102f557600080fd5b5061023960025481565b34801561030b57600080fd5b5061020d610b9d565b34801561032057600080fd5b5061020d61032f3660046122fb565b610bb5565b61020d61034236600461237c565b610c82565b61020d610355366004612416565b610fb1565b34801561036657600080fd5b5061020d6103753660046122fb565b61129d565b34801561038657600080fd5b50600054600160a01b900460ff165b6040519015158152602001610243565b3480156103b157600080fd5b5061020d6114ec565b3480156103c657600080fd5b5061020d6103d5366004612482565b6114fe565b3480156103e657600080fd5b5061020d611570565b61020d6103fd366004612416565b611588565b34801561040e57600080fd5b5061023960035481565b34801561042457600080fd5b506000546001600160a01b03166102d1565b34801561044257600080fd5b5061020d61045136600461249b565b61188b565b34801561046257600080fd5b5061020d6104713660046124eb565b611950565b34801561048257600080fd5b50600354610239565b34801561049757600080fd5b50600054600160a01b900460ff16610395565b3480156104b657600080fd5b50600254610239565b3480156104cb57600080fd5b506102786104da366004612522565b63bc197c8160e01b98975050505050505050565b3480156104fa57600080fd5b5061020d6105093660046125dd565b611983565b34801561051a57600080fd5b506103956105293660046125dd565b611a0c565b34801561053a57600080fd5b5061020d610549366004612482565b611a2a565b34801561055a57600080fd5b506004546001600160a01b03166102d1565b34801561057857600080fd5b50600554610239565b61020d61058f3660046125ff565b611a94565b3480156105a057600080fd5b5061020d6105af366004612482565b611cbf565b3480156105c057600080fd5b5061023960055481565b3480156105d657600080fd5b506102786105e5366004612632565b63f23a6e6160e01b9695505050505050565b34801561060357600080fd5b5061020d6106123660046125dd565b611d29565b34801561062357600080fd5b506103956106323660046125dd565b60066020526000908152604090205460ff1681565b61020d610655366004612219565b611da2565b610662611fc5565b61066a61201e565b61067333611a0c565b80610682575061068282611a0c565b156106a05760405163e3372e2d60e01b815260040160405180910390fd5b60035434146106d457600354604051632ea20a1160e01b815260048101919091523460248201526044015b60405180910390fd5b6004546003546040516000926001600160a01b031691908381818185875af1925050503d8060008114610723576040519150601f19603f3d011682016040523d82523d6000602084013e610728565b606091505b50509050806107495760405162461bcd60e51b81526004016106cb90612698565b6040516323b872dd60e01b81526000906001600160a01b038516906323b872dd9061077c903390309088906004016126e0565b6020604051808303816000875af115801561079b573d6000803e3d6000fd5b505050506040513d601f19601f820116820180604052508101906107bf9190612704565b9050806107de5760405162461bcd60e51b81526004016106cb90612721565b476002541115610801576040516312fc262f60e21b815260040160405180910390fd5b60025460405160009133918381818185875af1925050503d8060008114610844576040519150601f19603f3d011682016040523d82523d6000602084013e610849565b606091505b505090508061086a5760405162461bcd60e51b81526004016106cb9061276b565b6040518481526001600160a01b0386169033907f5bfc3ee73b0d9359d2249a190d600fb7982e4fa5d077d9df559bc4c2d38e04619060200160405180910390a35050506108b660018055565b5050565b6108c2611fc5565b6108ca61201e565b6108d333611a0c565b156108f15760405163e3372e2d60e01b815260040160405180910390fd5b60006003543461090191906127b8565b905080600554111561093457600554604051632ea20a1160e01b81526004810191909152602481018290526044016106cb565b6004546003546040516000926001600160a01b031691908381818185875af1925050503d8060008114610983576040519150601f19603f3d011682016040523d82523d6000602084013e610988565b606091505b50509050806109a95760405162461bcd60e51b81526004016106cb90612698565b60025460405160009133918381818185875af1925050503d80600081146109ec576040519150601f19603f3d011682016040523d82523d6000602084013e6109f1565b606091505b5050905080610a125760405162461bcd60e51b81526004016106cb9061276b565b60405183815233907fdf1e7683f60d7b31acd1a6462a5c9e26479b11dfa79254779c3136210ec285269060200160405180910390a2505050610a5360018055565b565b610a5d61206b565b610a65611fc5565b6001600160a01b038216610a8c5760405163ddbadd5f60e01b815260040160405180910390fd5b47811115610ab65760405163cf47918160e01b8152476004820152602481018290526044016106cb565b6000826001600160a01b03168260405160006040518083038185875af1925050503d8060008114610b03576040519150601f19603f3d011682016040523d82523d6000602084013e610b08565b606091505b5050905080610b505760405162461bcd60e51b81526020600482015260146024820152732330b4b632b2103a379039b2b7321022ba3432b960611b60448201526064016106cb565b826001600160a01b03167f94b2de810873337ed265c5f8cf98c9cffefa06b8607f9a2f1fbaebdfbcfbef1c83604051610b8b91815260200190565b60405180910390a2506108b660018055565b610ba561206b565b610bad6120c5565b610a53612115565b610bbd61206b565b610bc5611fc5565b604051632142170760e11b81526001600160a01b038316906342842e0e90610bf5903090879086906004016126e0565b600060405180830381600087803b158015610c0f57600080fd5b505af1158015610c23573d6000803e3d6000fd5b50505050816001600160a01b0316836001600160a01b03167feea167c0d54572a80626f5fd092a7c1f7b5d8e309533747e7e7d77b0558d6cf183604051610c6c91815260200190565b60405180910390a3610c7d60018055565b505050565b610c8a611fc5565b610c9261201e565b610c9b33611a0c565b15610cb95760405163e3372e2d60e01b815260040160405180910390fd5b848314801590610cc95750828114155b15610ce75760405163510a1bd560e01b815260040160405180910390fd5b60005b85811015610e0557610d1c878783818110610d0757610d076127d1565b905060200201602081019061052991906125dd565b15610d3a5760405163e3372e2d60e01b815260040160405180910390fd5b868682818110610d4c57610d4c6127d1565b9050602002016020810190610d6191906125dd565b6001600160a01b031663f242432a3330888886818110610d8357610d836127d1565b90506020020135878787818110610d9c57610d9c6127d1565b905060200201356040518563ffffffff1660e01b8152600401610dc294939291906127e7565b600060405180830381600087803b158015610ddc57600080fd5b505af1158015610df0573d6000803e3d6000fd5b5050505080610dfe9061281f565b9050610cea565b50600254600090610e17908790612838565b600354909150600090610e2b908890612838565b9050478110610e4d576040516312fc262f60e21b815260040160405180910390fd5b803414610e7657604051632ea20a1160e01b8152600481018290523460248201526044016106cb565b6004546040516000916001600160a01b03169083908381818185875af1925050503d8060008114610ec3576040519150601f19603f3d011682016040523d82523d6000602084013e610ec8565b606091505b5050905080610ee95760405162461bcd60e51b81526004016106cb90612698565b604051600090339085908381818185875af1925050503d8060008114610f2b576040519150601f19603f3d011682016040523d82523d6000602084013e610f30565b606091505b5050905080610f515760405162461bcd60e51b81526004016106cb9061276b565b336001600160a01b03167f5cc48339dc7acaa374ce235486a869df0c22264b939fe7a9dbb5827bfffdbd208b8b8b8b8b8b604051610f94969594939291906128c8565b60405180910390a250505050610fa960018055565b505050505050565b610fb9611fc5565b610fc161201e565b610fca33611a0c565b15610fe85760405163e3372e2d60e01b815260040160405180910390fd5b8281146110085760405163510a1bd560e01b815260040160405180910390fd5b60005b838110156110f757611028858583818110610d0757610d076127d1565b156110465760405163e3372e2d60e01b815260040160405180910390fd5b848482818110611058576110586127d1565b905060200201602081019061106d91906125dd565b6001600160a01b03166342842e0e333086868681811061108f5761108f6127d1565b905060200201356040518463ffffffff1660e01b81526004016110b4939291906126e0565b600060405180830381600087803b1580156110ce57600080fd5b505af11580156110e2573d6000803e3d6000fd5b50505050806110f09061281f565b905061100b565b50600254600090611109908590612838565b60035490915060009061111d908690612838565b905047811061113f576040516312fc262f60e21b815260040160405180910390fd5b80341461116857604051632ea20a1160e01b8152600481018290523460248201526044016106cb565b6004546040516000916001600160a01b03169083908381818185875af1925050503d80600081146111b5576040519150601f19603f3d011682016040523d82523d6000602084013e6111ba565b606091505b50509050806111db5760405162461bcd60e51b81526004016106cb90612698565b604051600090339085908381818185875af1925050503d806000811461121d576040519150601f19603f3d011682016040523d82523d6000602084013e611222565b606091505b50509050806112435760405162461bcd60e51b81526004016106cb9061276b565b336001600160a01b03167f542d12e45d3a85bc8025165dfb63ae08b833c5a5d0f431130a30f4dbc2a4a316898989896040516112829493929190612911565b60405180910390a25050505061129760018055565b50505050565b6112a561206b565b6112ad611fc5565b6001600160a01b0383166112d45760405163ddbadd5f60e01b815260040160405180910390fd5b6040516370a0823160e01b81523060048201526001600160a01b038316906370a0823190602401602060405180830381865afa158015611318573d6000803e3d6000fd5b505050506040513d601f19601f8201168201806040525081019061133c9190612943565b8111156113cf576040516370a0823160e01b81523060048201526001600160a01b038316906370a0823190602401602060405180830381865afa158015611387573d6000803e3d6000fd5b505050506040513d601f19601f820116820180604052508101906113ab9190612943565b60405163cf47918160e01b81526004810191909152602481018290526044016106cb565b60405163a9059cbb60e01b81526001600160a01b038481166004830152602482018390526000919084169063a9059cbb906044016020604051808303816000875af1158015611422573d6000803e3d6000fd5b505050506040513d601f19601f820116820180604052508101906114469190612704565b9050806114955760405162461bcd60e51b815260206004820152601b60248201527f4661696c656420455243323020546f6b656e205472616e73666572000000000060448201526064016106cb565b826001600160a01b0316846001600160a01b03167fbfed55bdcd242e3dd0f60ddd7d1e87c67f61c34cd9527b3e6455d841b1025362846040516114da91815260200190565b60405180910390a350610c7d60018055565b6114f461206b565b610a53600061216a565b61150661206b565b8060000361152a5760405163b8b32d2b60e01b8152600481018290526024016106cb565b600580549082905560408051828152602081018490527f0abbb0d7cc3d6cadc145c68198a41f63cc573f1de0e90ca5c2e40d3a83b9c19691015b60405180910390a15050565b61157861206b565b61158061201e565b610a536121ba565b611590611fc5565b61159861201e565b6115a133611a0c565b156115bf5760405163e3372e2d60e01b815260040160405180910390fd5b8281146115df5760405163510a1bd560e01b815260040160405180910390fd5b60005b83811015611700576115ff858583818110610d0757610d076127d1565b1561161d5760405163e3372e2d60e01b815260040160405180910390fd5b6000858583818110611631576116316127d1565b905060200201602081019061164691906125dd565b6001600160a01b03166323b872dd3330878787818110611668576116686127d1565b905060200201356040518463ffffffff1660e01b815260040161168d939291906126e0565b6020604051808303816000875af11580156116ac573d6000803e3d6000fd5b505050506040513d601f19601f820116820180604052508101906116d09190612704565b9050806116ef5760405162461bcd60e51b81526004016106cb90612721565b506116f98161281f565b90506115e2565b50600254600090611712908590612838565b600354909150600090611726908690612838565b9050478110611748576040516312fc262f60e21b815260040160405180910390fd5b80341461177157604051632ea20a1160e01b8152600481018290523460248201526044016106cb565b6004546040516000916001600160a01b03169083908381818185875af1925050503d80600081146117be576040519150601f19603f3d011682016040523d82523d6000602084013e6117c3565b606091505b50509050806117e45760405162461bcd60e51b81526004016106cb90612698565b604051600090339085908381818185875af1925050503d8060008114611826576040519150601f19603f3d011682016040523d82523d6000602084013e61182b565b606091505b505090508061184c5760405162461bcd60e51b81526004016106cb9061276b565b336001600160a01b03167f7cf9954877d8ebbe6c5438ed22e1429b1a542ba9b3136d6ca547d4d5e24e5ffd898989896040516112829493929190612911565b61189361206b565b61189b611fc5565b604051637921219560e11b81526001600160a01b0384169063f242432a906118cd9030908890879087906004016127e7565b600060405180830381600087803b1580156118e757600080fd5b505af11580156118fb573d6000803e3d6000fd5b505060408051858152602081018590526001600160a01b038088169450881692507fd4591c66399adca9b87b95d00144abee6c7dfe740c088c94106e50bb7e9d77dc910160405180910390a361129760018055565b61195861206b565b6001600160a01b03919091166000908152600660205260409020805460ff1916911515919091179055565b61198b61206b565b6001600160a01b0381166119b25760405163ddbadd5f60e01b815260040160405180910390fd5b600480546001600160a01b038381166001600160a01b031983168117909355604080519190921680825260208201939093527f28da9e46dc2e1d164660089e4671317c8824d48d9e1a0664a7c427e438146f469101611564565b6001600160a01b031660009081526006602052604090205460ff1690565b611a3261206b565b80600003611a565760405163b8b32d2b60e01b8152600481018290526024016106cb565b600380549082905560408051828152602081018490527f6447894e1284d506804c4712de29291e4bac8c5f165551941531389054d067429101611564565b611a9c611fc5565b611aa461201e565b611aad33611a0c565b80611abc5750611abc83611a0c565b15611ada5760405163e3372e2d60e01b815260040160405180910390fd5b6003543414611b0957600354604051632ea20a1160e01b815260048101919091523460248201526044016106cb565b6004546003546040516000926001600160a01b031691908381818185875af1925050503d8060008114611b58576040519150601f19603f3d011682016040523d82523d6000602084013e611b5d565b606091505b5050905080611b7e5760405162461bcd60e51b81526004016106cb90612698565b604051637921219560e11b81526001600160a01b0385169063f242432a90611bb09033903090889088906004016127e7565b600060405180830381600087803b158015611bca57600080fd5b505af1158015611bde573d6000803e3d6000fd5b50505050476002541115611c05576040516312fc262f60e21b815260040160405180910390fd5b60025460405160009133918381818185875af1925050503d8060008114611c48576040519150601f19603f3d011682016040523d82523d6000602084013e611c4d565b606091505b5050905080611c6e5760405162461bcd60e51b81526004016106cb9061276b565b60408051858152602081018590526001600160a01b0387169133917fcfeaf82a7e1ef3c3d741a48ab668a98b0f8a7af46c42b1fee9cdafebb1f23837910160405180910390a35050610c7d60018055565b611cc761206b565b80600003611ceb5760405163b8b32d2b60e01b8152600481018290526024016106cb565b600280549082905560408051828152602081018490527f3a466fca4909a209ea4041322f624f8633bdf1093af21964705fb9a6c21994599101611564565b611d3161206b565b6001600160a01b038116611d965760405162461bcd60e51b815260206004820152602660248201527f4f776e61626c653a206e6577206f776e657220697320746865207a65726f206160448201526564647265737360d01b60648201526084016106cb565b611d9f8161216a565b50565b611daa611fc5565b611db261201e565b611dbb33611a0c565b80611dca5750611dca82611a0c565b15611de85760405163e3372e2d60e01b815260040160405180910390fd5b6003543414611e1757600354604051632ea20a1160e01b815260048101919091523460248201526044016106cb565b6004546003546040516000926001600160a01b031691908381818185875af1925050503d8060008114611e66576040519150601f19603f3d011682016040523d82523d6000602084013e611e6b565b606091505b5050905080611e8c5760405162461bcd60e51b81526004016106cb90612698565b604051632142170760e11b81526001600160a01b038416906342842e0e90611ebc903390309087906004016126e0565b600060405180830381600087803b158015611ed657600080fd5b505af1158015611eea573d6000803e3d6000fd5b50505050476002541115611f11576040516312fc262f60e21b815260040160405180910390fd5b60025460405160009133918381818185875af1925050503d8060008114611f54576040519150601f19603f3d011682016040523d82523d6000602084013e611f59565b606091505b5050905080611f7a5760405162461bcd60e51b81526004016106cb9061276b565b6040518381526001600160a01b0385169033907f9de20980eca8ff38af105e13b5f0e7253e79883f68829f569fad77e76d0948269060200160405180910390a350506108b660018055565b6002600154036120175760405162461bcd60e51b815260206004820152601f60248201527f5265656e7472616e637947756172643a207265656e7472616e742063616c6c0060448201526064016106cb565b6002600155565b600054600160a01b900460ff1615610a535760405162461bcd60e51b815260206004820152601060248201526f14185d5cd8589b194e881c185d5cd95960821b60448201526064016106cb565b6000546001600160a01b03163314610a535760405162461bcd60e51b815260206004820181905260248201527f4f776e61626c653a2063616c6c6572206973206e6f7420746865206f776e657260448201526064016106cb565b600054600160a01b900460ff16610a535760405162461bcd60e51b815260206004820152601460248201527314185d5cd8589b194e881b9bdd081c185d5cd95960621b60448201526064016106cb565b61211d6120c5565b6000805460ff60a01b191690557f5db9ee0a495bf2e6ff9c91a7834c1ba4fdd244a5e8aa4e537bd38aeae4b073aa335b6040516001600160a01b03909116815260200160405180910390a1565b600080546001600160a01b038381166001600160a01b0319831681178455604051919092169283917f8be0079c531659141344cd1fd0a4f28419497f9722a3daafe3b4186f6b6457e09190a35050565b6121c261201e565b6000805460ff60a01b1916600160a01b1790557f62e78cea01bee320cd4e420270b5ea74000d11b0c9f74754ebdbfc544b05a25861214d3390565b80356001600160a01b038116811461221457600080fd5b919050565b6000806040838503121561222c57600080fd5b612235836121fd565b946020939093013593505050565b60008083601f84011261225557600080fd5b50813567ffffffffffffffff81111561226d57600080fd5b60208301915083602082850101111561228557600080fd5b9250929050565b6000806000806000608086880312156122a457600080fd5b6122ad866121fd565b94506122bb602087016121fd565b935060408601359250606086013567ffffffffffffffff8111156122de57600080fd5b6122ea88828901612243565b969995985093965092949392505050565b60008060006060848603121561231057600080fd5b612319846121fd565b9250612327602085016121fd565b9150604084013590509250925092565b60008083601f84011261234957600080fd5b50813567ffffffffffffffff81111561236157600080fd5b6020830191508360208260051b850101111561228557600080fd5b6000806000806000806060878903121561239557600080fd5b863567ffffffffffffffff808211156123ad57600080fd5b6123b98a838b01612337565b909850965060208901359150808211156123d257600080fd5b6123de8a838b01612337565b909650945060408901359150808211156123f757600080fd5b5061240489828a01612337565b979a9699509497509295939492505050565b6000806000806040858703121561242c57600080fd5b843567ffffffffffffffff8082111561244457600080fd5b61245088838901612337565b9096509450602087013591508082111561246957600080fd5b5061247687828801612337565b95989497509550505050565b60006020828403121561249457600080fd5b5035919050565b600080600080608085870312156124b157600080fd5b6124ba856121fd565b93506124c8602086016121fd565b93969395505050506040820135916060013590565b8015158114611d9f57600080fd5b600080604083850312156124fe57600080fd5b612507836121fd565b91506020830135612517816124dd565b809150509250929050565b60008060008060008060008060a0898b03121561253e57600080fd5b612547896121fd565b975061255560208a016121fd565b9650604089013567ffffffffffffffff8082111561257257600080fd5b61257e8c838d01612337565b909850965060608b013591508082111561259757600080fd5b6125a38c838d01612337565b909650945060808b01359150808211156125bc57600080fd5b506125c98b828c01612243565b999c989b5096995094979396929594505050565b6000602082840312156125ef57600080fd5b6125f8826121fd565b9392505050565b60008060006060848603121561261457600080fd5b61261d846121fd565b95602085013595506040909401359392505050565b60008060008060008060a0878903121561264b57600080fd5b612654876121fd565b9550612662602088016121fd565b94506040870135935060608701359250608087013567ffffffffffffffff81111561268c57600080fd5b61240489828a01612243565b60208082526028908201527f4661696c656420746f207472616e7366657220736572766963652066656520746040820152671bc81dd85b1b195d60c21b606082015260800190565b6001600160a01b039384168152919092166020820152604081019190915260600190565b60006020828403121561271657600080fd5b81516125f8816124dd565b6020808252602a908201527f4661696c656420746f207472616e7366657220455243323020746f6b656e20746040820152691bc818dbdb9d1c9858dd60b21b606082015260800190565b6020808252601a908201527f5061796d656e7420746f20637573746f6d6572206661696c6564000000000000604082015260600190565b634e487b7160e01b600052601160045260246000fd5b818103818111156127cb576127cb6127a2565b92915050565b634e487b7160e01b600052603260045260246000fd5b6001600160a01b0394851681529290931660208301526040820152606081019190915260a06080820181905260009082015260c00190565b600060018201612831576128316127a2565b5060010190565b80820281158282048414176127cb576127cb6127a2565b8183526000602080850194508260005b8581101561288b576001600160a01b03612878836121fd565b168752958201959082019060010161285f565b509495945050505050565b81835260006001600160fb1b038311156128af57600080fd5b8260051b80836020870137939093016020019392505050565b6060815260006128dc60608301888a61284f565b82810360208401526128ef818789612896565b90508281036040840152612904818587612896565b9998505050505050505050565b60408152600061292560408301868861284f565b8281036020840152612938818587612896565b979650505050505050565b60006020828403121561295557600080fd5b505191905056fea26469706673582212204ff40a5348e6c4e942f839c6e48f46b238a8a391ac6ad2ca3a4207859a933b1a64736f6c63430008140033","linkReferences":{}},"methodIdentifiers":{"changeCompanyWallet(address)":"cabc4dee","changeMinEthToHarvest(uint256)":"76fe19bb","changeServiceFee(uint256)":"d3e256bf","changeTokenPaymentAmount(uint256)":"d951ece3","companyWallet()":"1ec32d15","deniedList(address)":"f39737b2","deny(address,bool)":"af5f7085","getBalance()":"12065fe0","getCompanyWalletAddress()":"d62786be","getCurrentServiceFee()":"b02cff9a","getMinEthToHarvest()":"d7792229","getTokenPaymentAmount()":"b69cf175","harvestERC1155(address,uint256,uint256)":"d8d3dcb9","harvestERC20(address,uint256)":"066b7e74","harvestERC721(address,uint256)":"f5b35a5f","harvestEth()":"0db9f53e","harvestMultipleERC1155(address[],uint256[],uint256[])":"40da45d9","harvestMultipleERC20(address[],uint256[])":"88c422b1","harvestMultipleERC721(address[],uint256[])":"48901b7f","isPaused()":"b187bd26","isdeniedListed(address)":"ce86eb84","minEthToHarvest()":"e0faaff6","onERC1155BatchReceived(address,address,uint256[],uint256[],bytes)":"bc197c81","onERC1155Received(address,address,uint256,uint256,bytes)":"f23a6e61","onERC721Received(address,address,uint256,bytes)":"150b7a02","owner()":"8da5cb5b","pause()":"8456cb59","paused()":"5c975abb","renounceOwnership()":"715018a6","serviceFee()":"8abdf5aa","tokenPaymentAmount()":"34f44cfe","transferOwnership(address)":"f2fde38b","unpause()":"3f4ba83a","withdrawERC1155(address,address,uint256,uint256)":"a0edb48b","withdrawERC20Token(address,address,uint256)":"57d1b31b","withdrawERC721(address,address,uint256)":"4025feb2","withdrawEth(address,uint256)":"1b9a91a4"},"id":1}