{"abi":[{"type":"constructor","inputs":[],"stateMutability":"nonpayable"},{"type":"function","name":"balanceOf","inputs":[{"name":"account","type":"address","internalType":"address"},{"name":"id","type":"uint256","internalType":"uint256"}],"outputs":[{"name":"","type":"uint256","internalType":"uint256"}],"stateMutability":"view"},{"type":"function","name":"balanceOfBatch","inputs":[{"name":"accounts","type":"address[]","internalType":"address[]"},{"name":"ids","type":"uint256[]","internalType":"uint256[]"}],"outputs":[{"name":"","type":"uint256[]","internalType":"uint256[]"}],"stateMutability":"view"},{"type":"function","name":"isApprovedForAll","inputs":[{"name":"account","type":"address","internalType":"address"},{"name":"operator","type":"address","internalType":"address"}],"outputs":[{"name":"","type":"bool","internalType":"bool"}],"stateMutability":"view"},{"type":"function","name":"mint","inputs":[{"name":"account","type":"address","internalType":"address"},{"name":"amount","type":"uint256","internalType":"uint256"}],"outputs":[],"stateMutability":"nonpayable"},{"type":"function","name":"safeBatchTransferFrom","inputs":[{"name":"from","type":"address","internalType":"address"},{"name":"to","type":"address","internalType":"address"},{"name":"ids","type":"uint256[]","internalType":"uint256[]"},{"name":"amounts","type":"uint256[]","internalType":"uint256[]"},{"name":"data","type":"bytes","internalType":"bytes"}],"outputs":[],"stateMutability":"nonpayable"},{"type":"function","name":"safeTransferFrom","inputs":[{"name":"from","type":"address","internalType":"address"},{"name":"to","type":"address","internalType":"address"},{"name":"id","type":"uint256","internalType":"uint256"},{"name":"amount","type":"uint256","internalType":"uint256"},{"name":"data","type":"bytes","internalType":"bytes"}],"outputs":[],"stateMutability":"nonpayable"},{"type":"function","name":"setApprovalForAll","inputs":[{"name":"operator","type":"address","internalType":"address"},{"name":"approved","type":"bool","internalType":"bool"}],"outputs":[],"stateMutability":"nonpayable"},{"type":"function","name":"supportsInterface","inputs":[{"name":"interfaceId","type":"bytes4","internalType":"bytes4"}],"outputs":[{"name":"","type":"bool","internalType":"bool"}],"stateMutability":"view"},{"type":"function","name":"uri","inputs":[{"name":"","type":"uint256","internalType":"uint256"}],"outputs":[{"name":"","type":"string","internalType":"string"}],"stateMutability":"view"},{"type":"event","name":"ApprovalForAll","inputs":[{"name":"account","type":"address","indexed":true,"internalType":"address"},{"name":"operator","type":"address","indexed":true,"internalType":"address"},{"name":"approved","type":"bool","indexed":false,"internalType":"bool"}],"anonymous":false},{"type":"event","name":"TransferBatch","inputs":[{"name":"operator","type":"address","indexed":true,"internalType":"address"},{"name":"from","type":"address","indexed":true,"internalType":"address"},{"name":"to","type":"address","indexed":true,"internalType":"address"},{"name":"ids","type":"uint256[]","indexed":false,"internalType":"uint256[]"},{"name":"values","type":"uint256[]","indexed":false,"internalType":"uint256[]"}],"anonymous":false},{"type":"event","name":"TransferSingle","inputs":[{"name":"operator","type":"address","indexed":true,"internalType":"address"},{"name":"from","type":"address","indexed":true,"internalType":"address"},{"name":"to","type":"address","indexed":true,"internalType":"address"},{"name":"id","type":"uint256","indexed":false,"internalType":"uint256"},{"name":"value","type":"uint256","indexed":false,"internalType":"uint256"}],"anonymous":false},{"type":"event","name":"URI","inputs":[{"name":"value","type":"string","indexed":false,"internalType":"string"},{"name":"id","type":"uint256","indexed":true,"internalType":"uint256"}],"anonymous":false}],"bytecode":{"object":"0x60806040523480156200001157600080fd5b50604051806060016040528060228152602001620016ad6022913962000037816200003e565b50620001c1565b60026200004c8282620000f5565b5050565b634e487b7160e01b600052604160045260246000fd5b600181811c908216806200007b57607f821691505b6020821081036200009c57634e487b7160e01b600052602260045260246000fd5b50919050565b601f821115620000f057600081815260208120601f850160051c81016020861015620000cb5750805b601f850160051c820191505b81811015620000ec57828155600101620000d7565b5050505b505050565b81516001600160401b0381111562000111576200011162000050565b620001298162000122845462000066565b84620000a2565b602080601f831160018114620001615760008415620001485750858301515b600019600386901b1c1916600185901b178555620000ec565b600085815260208120601f198616915b82811015620001925788860151825594840194600190910190840162000171565b5085821015620001b15787850151600019600388901b60f8161c191681555b5050505050600190811b01905550565b6114dc80620001d16000396000f3fe608060405234801561001057600080fd5b50600436106100925760003560e01c806340c10f191161006657806340c10f19146101155780634e1273f414610128578063a22cb46514610148578063e985e9c51461015b578063f242432a1461019757600080fd5b8062fdd58e1461009757806301ffc9a7146100bd5780630e89341c146100e05780632eb2c2d614610100575b600080fd5b6100aa6100a5366004610c9f565b6101aa565b6040519081526020015b60405180910390f35b6100d06100cb366004610ce2565b610243565b60405190151581526020016100b4565b6100f36100ee366004610d06565b610293565b6040516100b49190610d65565b61011361010e366004610ec4565b610327565b005b610113610123366004610c9f565b610373565b61013b610136366004610f6e565b6103a9565b6040516100b49190611074565b610113610156366004611087565b6104d3565b6100d06101693660046110c3565b6001600160a01b03918216600090815260016020908152604080832093909416825291909152205460ff1690565b6101136101a53660046110f6565b6104e2565b60006001600160a01b03831661021a5760405162461bcd60e51b815260206004820152602a60248201527f455243313135353a2061646472657373207a65726f206973206e6f742061207660448201526930b634b21037bbb732b960b11b60648201526084015b60405180910390fd5b506000818152602081815260408083206001600160a01b03861684529091529020545b92915050565b60006001600160e01b03198216636cdb3d1360e11b148061027457506001600160e01b031982166303a24d0760e21b145b8061023d57506301ffc9a760e01b6001600160e01b031983161461023d565b6060600280546102a29061115b565b80601f01602080910402602001604051908101604052809291908181526020018280546102ce9061115b565b801561031b5780601f106102f05761010080835404028352916020019161031b565b820191906000526020600020905b8154815290600101906020018083116102fe57829003601f168201915b50505050509050919050565b6001600160a01b03851633148061034357506103438533610169565b61035f5760405162461bcd60e51b815260040161021190611195565b61036c8585858585610527565b5050505050565b610390826003548360405180602001604052806000815250610704565b600380549060006103a0836111f9565b91905055505050565b6060815183511461040e5760405162461bcd60e51b815260206004820152602960248201527f455243313135353a206163636f756e747320616e6420696473206c656e677468604482015268040dad2e6dac2e8c6d60bb1b6064820152608401610211565b6000835167ffffffffffffffff81111561042a5761042a610d78565b604051908082528060200260200182016040528015610453578160200160208202803683370190505b50905060005b84518110156104cb5761049e85828151811061047757610477611212565b602002602001015185838151811061049157610491611212565b60200260200101516101aa565b8282815181106104b0576104b0611212565b60209081029190910101526104c4816111f9565b9050610459565b509392505050565b6104de338383610818565b5050565b6001600160a01b0385163314806104fe57506104fe8533610169565b61051a5760405162461bcd60e51b815260040161021190611195565b61036c85858585856108f8565b81518351146105895760405162461bcd60e51b815260206004820152602860248201527f455243313135353a2069647320616e6420616d6f756e7473206c656e677468206044820152670dad2e6dac2e8c6d60c31b6064820152608401610211565b6001600160a01b0384166105af5760405162461bcd60e51b815260040161021190611228565b3360005b84518110156106965760008582815181106105d0576105d0611212565b6020026020010151905060008583815181106105ee576105ee611212565b602090810291909101810151600084815280835260408082206001600160a01b038e16835290935291909120549091508181101561063e5760405162461bcd60e51b81526004016102119061126d565b6000838152602081815260408083206001600160a01b038e8116855292528083208585039055908b1682528120805484929061067b9084906112b7565b925050819055505050508061068f906111f9565b90506105b3565b50846001600160a01b0316866001600160a01b0316826001600160a01b03167f4a39dc06d4c0dbc64b70af90fd698a233a518aa5d07e595d983b8c0526c8f7fb87876040516106e69291906112ca565b60405180910390a46106fc818787878787610a22565b505050505050565b6001600160a01b0384166107645760405162461bcd60e51b815260206004820152602160248201527f455243313135353a206d696e7420746f20746865207a65726f206164647265736044820152607360f81b6064820152608401610211565b33600061077085610b7d565b9050600061077d85610b7d565b90506000868152602081815260408083206001600160a01b038b168452909152812080548792906107af9084906112b7565b909155505060408051878152602081018790526001600160a01b03808a1692600092918716917fc3d58168c5ae7397731d063d5bbf3d657854427343f4c083240f7aacaa2d0f62910160405180910390a461080f83600089898989610bc8565b50505050505050565b816001600160a01b0316836001600160a01b03160361088b5760405162461bcd60e51b815260206004820152602960248201527f455243313135353a2073657474696e6720617070726f76616c20737461747573604482015268103337b91039b2b63360b91b6064820152608401610211565b6001600160a01b03838116600081815260016020908152604080832094871680845294825291829020805460ff191686151590811790915591519182527f17307eab39ab6107e8899845ad3d59bd9653f200f220920489ca2b5937696c31910160405180910390a3505050565b6001600160a01b03841661091e5760405162461bcd60e51b815260040161021190611228565b33600061092a85610b7d565b9050600061093785610b7d565b90506000868152602081815260408083206001600160a01b038c1684529091529020548581101561097a5760405162461bcd60e51b81526004016102119061126d565b6000878152602081815260408083206001600160a01b038d8116855292528083208985039055908a168252812080548892906109b79084906112b7565b909155505060408051888152602081018890526001600160a01b03808b16928c821692918816917fc3d58168c5ae7397731d063d5bbf3d657854427343f4c083240f7aacaa2d0f62910160405180910390a4610a17848a8a8a8a8a610bc8565b505050505050505050565b6001600160a01b0384163b156106fc5760405163bc197c8160e01b81526001600160a01b0385169063bc197c8190610a6690899089908890889088906004016112f8565b6020604051808303816000875af1925050508015610aa1575060408051601f3d908101601f19168201909252610a9e91810190611356565b60015b610b4d57610aad611373565b806308c379a003610ae65750610ac161138f565b80610acc5750610ae8565b8060405162461bcd60e51b81526004016102119190610d65565b505b60405162461bcd60e51b815260206004820152603460248201527f455243313135353a207472616e7366657220746f206e6f6e2d455243313135356044820152732932b1b2b4bb32b91034b6b83632b6b2b73a32b960611b6064820152608401610211565b6001600160e01b0319811663bc197c8160e01b1461080f5760405162461bcd60e51b815260040161021190611419565b60408051600180825281830190925260609160009190602080830190803683370190505090508281600081518110610bb757610bb7611212565b602090810291909101015292915050565b6001600160a01b0384163b156106fc5760405163f23a6e6160e01b81526001600160a01b0385169063f23a6e6190610c0c9089908990889088908890600401611461565b6020604051808303816000875af1925050508015610c47575060408051601f3d908101601f19168201909252610c4491810190611356565b60015b610c5357610aad611373565b6001600160e01b0319811663f23a6e6160e01b1461080f5760405162461bcd60e51b815260040161021190611419565b80356001600160a01b0381168114610c9a57600080fd5b919050565b60008060408385031215610cb257600080fd5b610cbb83610c83565b946020939093013593505050565b6001600160e01b031981168114610cdf57600080fd5b50565b600060208284031215610cf457600080fd5b8135610cff81610cc9565b9392505050565b600060208284031215610d1857600080fd5b5035919050565b6000815180845260005b81811015610d4557602081850181015186830182015201610d29565b506000602082860101526020601f19601f83011685010191505092915050565b602081526000610cff6020830184610d1f565b634e487b7160e01b600052604160045260246000fd5b601f8201601f1916810167ffffffffffffffff81118282101715610db457610db4610d78565b6040525050565b600067ffffffffffffffff821115610dd557610dd5610d78565b5060051b60200190565b600082601f830112610df057600080fd5b81356020610dfd82610dbb565b604051610e0a8282610d8e565b83815260059390931b8501820192828101915086841115610e2a57600080fd5b8286015b84811015610e455780358352918301918301610e2e565b509695505050505050565b600082601f830112610e6157600080fd5b813567ffffffffffffffff811115610e7b57610e7b610d78565b604051610e92601f8301601f191660200182610d8e565b818152846020838601011115610ea757600080fd5b816020850160208301376000918101602001919091529392505050565b600080600080600060a08688031215610edc57600080fd5b610ee586610c83565b9450610ef360208701610c83565b9350604086013567ffffffffffffffff80821115610f1057600080fd5b610f1c89838a01610ddf565b94506060880135915080821115610f3257600080fd5b610f3e89838a01610ddf565b93506080880135915080821115610f5457600080fd5b50610f6188828901610e50565b9150509295509295909350565b60008060408385031215610f8157600080fd5b823567ffffffffffffffff80821115610f9957600080fd5b818501915085601f830112610fad57600080fd5b81356020610fba82610dbb565b604051610fc78282610d8e565b83815260059390931b8501820192828101915089841115610fe757600080fd5b948201945b8386101561100c57610ffd86610c83565b82529482019490820190610fec565b9650508601359250508082111561102257600080fd5b5061102f85828601610ddf565b9150509250929050565b600081518084526020808501945080840160005b838110156110695781518752958201959082019060010161104d565b509495945050505050565b602081526000610cff6020830184611039565b6000806040838503121561109a57600080fd5b6110a383610c83565b9150602083013580151581146110b857600080fd5b809150509250929050565b600080604083850312156110d657600080fd5b6110df83610c83565b91506110ed60208401610c83565b90509250929050565b600080600080600060a0868803121561110e57600080fd5b61111786610c83565b945061112560208701610c83565b93506040860135925060608601359150608086013567ffffffffffffffff81111561114f57600080fd5b610f6188828901610e50565b600181811c9082168061116f57607f821691505b60208210810361118f57634e487b7160e01b600052602260045260246000fd5b50919050565b6020808252602e908201527f455243313135353a2063616c6c6572206973206e6f7420746f6b656e206f776e60408201526d195c881bdc88185c1c1c9bdd995960921b606082015260800190565b634e487b7160e01b600052601160045260246000fd5b60006001820161120b5761120b6111e3565b5060010190565b634e487b7160e01b600052603260045260246000fd5b60208082526025908201527f455243313135353a207472616e7366657220746f20746865207a65726f206164604082015264647265737360d81b606082015260800190565b6020808252602a908201527f455243313135353a20696e73756666696369656e742062616c616e636520666f60408201526939103a3930b739b332b960b11b606082015260800190565b8082018082111561023d5761023d6111e3565b6040815260006112dd6040830185611039565b82810360208401526112ef8185611039565b95945050505050565b6001600160a01b0386811682528516602082015260a06040820181905260009061132490830186611039565b82810360608401526113368186611039565b9050828103608084015261134a8185610d1f565b98975050505050505050565b60006020828403121561136857600080fd5b8151610cff81610cc9565b600060033d111561138c5760046000803e5060005160e01c5b90565b600060443d101561139d5790565b6040516003193d81016004833e81513d67ffffffffffffffff81602484011181841117156113cd57505050505090565b82850191508151818111156113e55750505050505090565b843d87010160208285010111156113ff5750505050505090565b61140e60208286010187610d8e565b509095945050505050565b60208082526028908201527f455243313135353a204552433131353552656365697665722072656a656374656040820152676420746f6b656e7360c01b606082015260800190565b6001600160a01b03868116825285166020820152604081018490526060810183905260a06080820181905260009061149b90830184610d1f565b97965050505050505056fea26469706673582212209575728d4afbe5558418721dac585a2ed39228deefb2027b69c43ee1750d63a664736f6c6343000814003368747470733a2f2f746f6b656e2d63646e2d646f6d61696e2f7b69647d2e6a736f6e","linkReferences":{}},"methodIdentifiers":{"balanceOf(address,uint256)":"00fdd58e","balanceOfBatch(address[],uint256[])":"4e1273f4","isApprovedForAll(address,address)":"e985e9c5","mint(address,uint256)":"40c10f19","safeBatchTransferFrom(address,address,uint256[],uint256[],bytes)":"2eb2c2d6","safeTransferFrom(address,address,uint256,uint256,bytes)":"f242432a","setApprovalForAll(address,bool)":"a22cb465","supportsInterface(bytes4)":"01ffc9a7","uri(uint256)":"0e89341c"},"id":2}