{"abi":[{"type":"constructor","inputs":[{"name":"_roosterWallet","type":"address","internalType":"address"}],"stateMutability":"nonpayable"},{"type":"fallback","stateMutability":"payable"},{"type":"receive","stateMutability":"payable"},{"type":"function","name":"changeServiceFee","inputs":[{"name":"_newServiceFee","type":"uint256","internalType":"uint256"}],"outputs":[],"stateMutability":"nonpayable"},{"type":"function","name":"changeTokenPaymentAmount","inputs":[{"name":"_newTokenPaymentAmount","type":"uint256","internalType":"uint256"}],"outputs":[],"stateMutability":"nonpayable"},{"type":"function","name":"changeroosterWallet","inputs":[{"name":"_newroosterWallet","type":"address","internalType":"address"}],"outputs":[],"stateMutability":"nonpayable"},{"type":"function","name":"deniedList","inputs":[{"name":"","type":"address","internalType":"address"}],"outputs":[{"name":"","type":"bool","internalType":"bool"}],"stateMutability":"view"},{"type":"function","name":"deny","inputs":[{"name":"_address","type":"address","internalType":"address"},{"name":"_isDenied","type":"bool","internalType":"bool"}],"outputs":[],"stateMutability":"nonpayable"},{"type":"function","name":"getBalance","inputs":[],"outputs":[{"name":"","type":"uint256","internalType":"uint256"}],"stateMutability":"view"},{"type":"function","name":"getCurrentServiceFee","inputs":[],"outputs":[{"name":"","type":"uint256","internalType":"uint256"}],"stateMutability":"view"},{"type":"function","name":"getTokenPaymentAmount","inputs":[],"outputs":[{"name":"","type":"uint256","internalType":"uint256"}],"stateMutability":"view"},{"type":"function","name":"getroosterWalletAddress","inputs":[],"outputs":[{"name":"","type":"address","internalType":"address"}],"stateMutability":"view"},{"type":"function","name":"harvestERC1155","inputs":[{"name":"_token","type":"address","internalType":"address"},{"name":"_tokenId","type":"uint256","internalType":"uint256"},{"name":"_amount","type":"uint256","internalType":"uint256"}],"outputs":[],"stateMutability":"payable"},{"type":"function","name":"harvestERC20","inputs":[{"name":"_token","type":"address","internalType":"address"},{"name":"_amount","type":"uint256","internalType":"uint256"}],"outputs":[],"stateMutability":"payable"},{"type":"function","name":"harvestERC721","inputs":[{"name":"_token","type":"address","internalType":"address"},{"name":"_tokenId","type":"uint256","internalType":"uint256"}],"outputs":[],"stateMutability":"payable"},{"type":"function","name":"harvestMultipleERC1155","inputs":[{"name":"_tokens","type":"address[]","internalType":"address[]"},{"name":"_tokenIds","type":"uint256[]","internalType":"uint256[]"},{"name":"_amounts","type":"uint256[]","internalType":"uint256[]"}],"outputs":[],"stateMutability":"payable"},{"type":"function","name":"harvestMultipleERC20","inputs":[{"name":"_tokens","type":"address[]","internalType":"address[]"},{"name":"_amounts","type":"uint256[]","internalType":"uint256[]"}],"outputs":[],"stateMutability":"payable"},{"type":"function","name":"harvestMultipleERC721","inputs":[{"name":"_tokens","type":"address[]","internalType":"address[]"},{"name":"_tokenIds","type":"uint256[]","internalType":"uint256[]"}],"outputs":[],"stateMutability":"payable"},{"type":"function","name":"i_coq","inputs":[],"outputs":[{"name":"","type":"address","internalType":"address"}],"stateMutability":"view"},{"type":"function","name":"isDeniedListedWallet","inputs":[{"name":"_address","type":"address","internalType":"address"}],"outputs":[{"name":"","type":"bool","internalType":"bool"}],"stateMutability":"view"},{"type":"function","name":"isPaused","inputs":[],"outputs":[{"name":"","type":"bool","internalType":"bool"}],"stateMutability":"view"},{"type":"function","name":"onERC1155BatchReceived","inputs":[{"name":"","type":"address","internalType":"address"},{"name":"","type":"address","internalType":"address"},{"name":"","type":"uint256[]","internalType":"uint256[]"},{"name":"","type":"uint256[]","internalType":"uint256[]"},{"name":"","type":"bytes","internalType":"bytes"}],"outputs":[{"name":"","type":"bytes4","internalType":"bytes4"}],"stateMutability":"pure"},{"type":"function","name":"onERC1155Received","inputs":[{"name":"","type":"address","internalType":"address"},{"name":"","type":"address","internalType":"address"},{"name":"","type":"uint256","internalType":"uint256"},{"name":"","type":"uint256","internalType":"uint256"},{"name":"","type":"bytes","internalType":"bytes"}],"outputs":[{"name":"","type":"bytes4","internalType":"bytes4"}],"stateMutability":"pure"},{"type":"function","name":"onERC721Received","inputs":[{"name":"","type":"address","internalType":"address"},{"name":"","type":"address","internalType":"address"},{"name":"","type":"uint256","internalType":"uint256"},{"name":"","type":"bytes","internalType":"bytes"}],"outputs":[{"name":"","type":"bytes4","internalType":"bytes4"}],"stateMutability":"pure"},{"type":"function","name":"owner","inputs":[],"outputs":[{"name":"","type":"address","internalType":"address"}],"stateMutability":"view"},{"type":"function","name":"pause","inputs":[],"outputs":[],"stateMutability":"nonpayable"},{"type":"function","name":"paused","inputs":[],"outputs":[{"name":"","type":"bool","internalType":"bool"}],"stateMutability":"view"},{"type":"function","name":"renounceOwnership","inputs":[],"outputs":[],"stateMutability":"nonpayable"},{"type":"function","name":"roosterWallet","inputs":[],"outputs":[{"name":"","type":"address","internalType":"address"}],"stateMutability":"view"},{"type":"function","name":"serviceFee","inputs":[],"outputs":[{"name":"","type":"uint256","internalType":"uint256"}],"stateMutability":"view"},{"type":"function","name":"tokenPaymentAmount","inputs":[],"outputs":[{"name":"","type":"uint256","internalType":"uint256"}],"stateMutability":"view"},{"type":"function","name":"transferOwnership","inputs":[{"name":"newOwner","type":"address","internalType":"address"}],"outputs":[],"stateMutability":"nonpayable"},{"type":"function","name":"unpause","inputs":[],"outputs":[],"stateMutability":"nonpayable"},{"type":"function","name":"withdrawAvax","inputs":[{"name":"_to","type":"address","internalType":"address"},{"name":"_amount","type":"uint256","internalType":"uint256"}],"outputs":[],"stateMutability":"nonpayable"},{"type":"function","name":"withdrawERC1155","inputs":[{"name":"_to","type":"address","internalType":"address"},{"name":"_token","type":"address","internalType":"address"},{"name":"_tokenId","type":"uint256","internalType":"uint256"},{"name":"_amount","type":"uint256","internalType":"uint256"}],"outputs":[],"stateMutability":"nonpayable"},{"type":"function","name":"withdrawERC20Token","inputs":[{"name":"_to","type":"address","internalType":"address"},{"name":"_token","type":"address","internalType":"address"},{"name":"_amount","type":"uint256","internalType":"uint256"}],"outputs":[],"stateMutability":"nonpayable"},{"type":"function","name":"withdrawERC721","inputs":[{"name":"_to","type":"address","internalType":"address"},{"name":"_token","type":"address","internalType":"address"},{"name":"_tokenId","type":"uint256","internalType":"uint256"}],"outputs":[],"stateMutability":"nonpayable"},{"type":"event","name":"AVAXWithdrawn","inputs":[{"name":"user","type":"address","indexed":true,"internalType":"address"},{"name":"amount","type":"uint256","indexed":false,"internalType":"uint256"}],"anonymous":false},{"type":"event","name":"ERC1155Withdrawn","inputs":[{"name":"user","type":"address","indexed":true,"internalType":"address"},{"name":"token","type":"address","indexed":true,"internalType":"address"},{"name":"tokenId","type":"uint256","indexed":false,"internalType":"uint256"},{"name":"amount","type":"uint256","indexed":false,"internalType":"uint256"}],"anonymous":false},{"type":"event","name":"ERC20Withdrawn","inputs":[{"name":"user","type":"address","indexed":true,"internalType":"address"},{"name":"token","type":"address","indexed":true,"internalType":"address"},{"name":"amount","type":"uint256","indexed":false,"internalType":"uint256"}],"anonymous":false},{"type":"event","name":"ERC721Withdrawn","inputs":[{"name":"user","type":"address","indexed":true,"internalType":"address"},{"name":"token","type":"address","indexed":true,"internalType":"address"},{"name":"tokenId","type":"uint256","indexed":false,"internalType":"uint256"}],"anonymous":false},{"type":"event","name":"HarvestedERC1155","inputs":[{"name":"user","type":"address","indexed":true,"internalType":"address"},{"name":"token","type":"address","indexed":true,"internalType":"address"},{"name":"tokenId","type":"uint256","indexed":false,"internalType":"uint256"},{"name":"amount","type":"uint256","indexed":false,"internalType":"uint256"}],"anonymous":false},{"type":"event","name":"HarvestedERC1155s","inputs":[{"name":"user","type":"address","indexed":true,"internalType":"address"},{"name":"tokens","type":"address[]","indexed":false,"internalType":"address[]"},{"name":"tokenIds","type":"uint256[]","indexed":false,"internalType":"uint256[]"},{"name":"amounts","type":"uint256[]","indexed":false,"internalType":"uint256[]"}],"anonymous":false},{"type":"event","name":"HarvestedERC20","inputs":[{"name":"user","type":"address","indexed":true,"internalType":"address"},{"name":"token","type":"address","indexed":true,"internalType":"address"},{"name":"amount","type":"uint256","indexed":false,"internalType":"uint256"}],"anonymous":false},{"type":"event","name":"HarvestedERC721","inputs":[{"name":"user","type":"address","indexed":true,"internalType":"address"},{"name":"token","type":"address","indexed":true,"internalType":"address"},{"name":"tokenId","type":"uint256","indexed":false,"internalType":"uint256"}],"anonymous":false},{"type":"event","name":"HarvestedERC721s","inputs":[{"name":"user","type":"address","indexed":true,"internalType":"address"},{"name":"tokens","type":"address[]","indexed":false,"internalType":"address[]"},{"name":"tokenIds","type":"uint256[]","indexed":false,"internalType":"uint256[]"}],"anonymous":false},{"type":"event","name":"HarvestedMultiERC20","inputs":[{"name":"user","type":"address","indexed":true,"internalType":"address"},{"name":"tokens","type":"address[]","indexed":false,"internalType":"address[]"},{"name":"amounts","type":"uint256[]","indexed":false,"internalType":"uint256[]"}],"anonymous":false},{"type":"event","name":"OwnershipTransferred","inputs":[{"name":"previousOwner","type":"address","indexed":true,"internalType":"address"},{"name":"newOwner","type":"address","indexed":true,"internalType":"address"}],"anonymous":false},{"type":"event","name":"Paused","inputs":[{"name":"account","type":"address","indexed":false,"internalType":"address"}],"anonymous":false},{"type":"event","name":"ServiceFeeChanged","inputs":[{"name":"oldServiceFee","type":"uint256","indexed":false,"internalType":"uint256"},{"name":"newServiceFee","type":"uint256","indexed":false,"internalType":"uint256"}],"anonymous":false},{"type":"event","name":"TokenPaymentAmountChanged","inputs":[{"name":"oldTokenPaymentAmount","type":"uint256","indexed":false,"internalType":"uint256"},{"name":"newTokenPaymentAmount","type":"uint256","indexed":false,"internalType":"uint256"}],"anonymous":false},{"type":"event","name":"Unpaused","inputs":[{"name":"account","type":"address","indexed":false,"internalType":"address"}],"anonymous":false},{"type":"event","name":"roosterWalletChanged","inputs":[{"name":"oldAddress","type":"address","indexed":false,"internalType":"address"},{"name":"newAddress","type":"address","indexed":false,"internalType":"address"}],"anonymous":false},{"type":"error","name":"ArrayMismatchLengths","inputs":[]},{"type":"error","name":"CantBeZero","inputs":[{"name":"","type":"uint256","internalType":"uint256"}]},{"type":"error","name":"ContractUnderFunded","inputs":[]},{"type":"error","name":"Denied","inputs":[]},{"type":"error","name":"InsufficientBalance","inputs":[{"name":"","type":"uint256","internalType":"uint256"},{"name":"","type":"uint256","internalType":"uint256"}]},{"type":"error","name":"NoZeroAddress","inputs":[]},{"type":"error","name":"OwnableInvalidOwner","inputs":[{"name":"","type":"address","internalType":"address"}]},{"type":"error","name":"SameOwner","inputs":[{"name":"","type":"address","internalType":"address"}]},{"type":"error","name":"UserNeedsMoreCoqInThem","inputs":[]}],"bytecode":{"object":"0x60a060405273420fca0121dc28039145009570975747295f232960805269d3c21bcecceda10000006002556a01a784379d99db420000006003553480156200004657600080fd5b50604051620030db380380620030db833981016040819052620000699162000123565b6200007433620000d3565b6000805460ff60a01b19169055600180556001600160a01b038116620000ad5760405163ddbadd5f60e01b815260040160405180910390fd5b600480546001600160a01b0319166001600160a01b039290921691909117905562000155565b600080546001600160a01b038381166001600160a01b0319831681178455604051919092169283917f8be0079c531659141344cd1fd0a4f28419497f9722a3daafe3b4186f6b6457e09190a35050565b6000602082840312156200013657600080fd5b81516001600160a01b03811681146200014e57600080fd5b9392505050565b608051612ed7620002046000396000818161054801528181610681015281816107d10152818161088901528181610c1501528181610cbc01528181610d6d01528181610e29015281816110a101528181611148015281816111f9015281816112b5015281816118630152818161190a015281816119bb01528181611a7701528181611e5c01528181611f70015281816120290152818161229a015281816123ac01526124650152612ed76000f3fe6080604052600436106101e55760003560e01c80638da5cb5b11610101578063d3e256bf1161009a578063f23a6e611161006c578063f23a6e611461056a578063f2fde38b14610597578063f39737b2146105b7578063f5b35a5f146105e7578063f89b9c55146105fa57005b8063d3e256bf146104e3578063d8d3dcb914610503578063d951ece314610516578063e793a3ca1461053657005b8063b02cff9a116100d3578063b02cff9a1461046b578063b187bd2614610480578063b69cf1751461049f578063bc197c81146104b457005b80638da5cb5b146103ed57806397ae06b51461040b578063a0edb48b1461042b578063af5f70851461044b57005b806348901b7f1161017e5780635fde3454116101505780635fde34541461037a578063715018a61461039a5780638456cb59146103af57806388c422b1146103c45780638abdf5aa146103d757005b806348901b7f146102fe57806357d1b31b146103115780635c975abb146103315780635f08013f1461035c57005b80633f4ba83a116101b75780633f4ba83a1461027e5780634025feb21461029357806340da45d9146102b3578063451aee73146102c657005b8063066b7e74146101ee57806312065fe014610201578063150b7a021461022357806334f44cfe1461026857005b366101ec57005b005b6101ec6101fc3660046127b6565b61061a565b34801561020d57600080fd5b50475b6040519081526020015b60405180910390f35b34801561022f57600080fd5b5061024f61023e366004612829565b630a85bd0160e11b95945050505050565b6040516001600160e01b0319909116815260200161021a565b34801561027457600080fd5b5061021060025481565b34801561028a57600080fd5b506101ec61096d565b34801561029f57600080fd5b506101ec6102ae366004612898565b610987565b6101ec6102c1366004612919565b610a54565b3480156102d257600080fd5b506004546102e6906001600160a01b031681565b6040516001600160a01b03909116815260200161021a565b6101ec61030c3660046129b3565b610f1d565b34801561031d57600080fd5b506101ec61032c366004612898565b6113a3565b34801561033d57600080fd5b50600054600160a01b900460ff165b604051901515815260200161021a565b34801561036857600080fd5b506004546001600160a01b03166102e6565b34801561038657600080fd5b506101ec610395366004612a1f565b6115f2565b3480156103a657600080fd5b506101ec611683565b3480156103bb57600080fd5b506101ec611695565b6101ec6103d23660046129b3565b6116ad565b3480156103e357600080fd5b5061021060035481565b3480156103f957600080fd5b506000546001600160a01b03166102e6565b34801561041757600080fd5b506101ec6104263660046127b6565b611b4a565b34801561043757600080fd5b506101ec610446366004612a41565b611c93565b34801561045757600080fd5b506101ec610466366004612a94565b611d58565b34801561047757600080fd5b50600354610210565b34801561048c57600080fd5b50600054600160a01b900460ff1661034c565b3480156104ab57600080fd5b50600254610210565b3480156104c057600080fd5b5061024f6104cf366004612acb565b63bc197c8160e01b98975050505050505050565b3480156104ef57600080fd5b506101ec6104fe366004612b86565b611d8b565b6101ec610511366004612b9f565b611df5565b34801561052257600080fd5b506101ec610531366004612b86565b61210e565b34801561054257600080fd5b506102e67f000000000000000000000000000000000000000000000000000000000000000081565b34801561057657600080fd5b5061024f610585366004612bd2565b63f23a6e6160e01b9695505050505050565b3480156105a357600080fd5b506101ec6105b2366004612a1f565b612178565b3480156105c357600080fd5b5061034c6105d2366004612a1f565b60056020526000908152604090205460ff1681565b6101ec6105f53660046127b6565b612233565b34801561060657600080fd5b5061034c610615366004612a1f565b612544565b610622612562565b61062a6125bb565b61063333612544565b80610642575061064282612544565b156106605760405163e3372e2d60e01b815260040160405180910390fd5b600480546003546040516323b872dd60e01b81526000936001600160a01b037f00000000000000000000000000000000000000000000000000000000000000008116946323b872dd946106bc9433949290931692909101612c38565b6020604051808303816000875af11580156106db573d6000803e3d6000fd5b505050506040513d601f19601f820116820180604052508101906106ff9190612c5c565b9050806107275760405162461bcd60e51b815260040161071e90612c79565b60405180910390fd5b6040516323b872dd60e01b81526000906001600160a01b038516906323b872dd9061075a90339030908890600401612c38565b6020604051808303816000875af1158015610779573d6000803e3d6000fd5b505050506040513d601f19601f8201168201806040525081019061079d9190612c5c565b9050806107bc5760405162461bcd60e51b815260040161071e90612c79565b6040516370a0823160e01b81523060048201527f00000000000000000000000000000000000000000000000000000000000000006001600160a01b0316906370a0823190602401602060405180830381865afa158015610820573d6000803e3d6000fd5b505050506040513d601f19601f820116820180604052508101906108449190612cc3565b6002541115610866576040516312fc262f60e21b815260040160405180910390fd5b60025460405163a9059cbb60e01b815233600482015260248101919091526000907f00000000000000000000000000000000000000000000000000000000000000006001600160a01b03169063a9059cbb906044016020604051808303816000875af11580156108da573d6000803e3d6000fd5b505050506040513d601f19601f820116820180604052508101906108fe9190612c5c565b90508061091d5760405162461bcd60e51b815260040161071e90612cdc565b6040518481526001600160a01b0386169033907f5bfc3ee73b0d9359d2249a190d600fb7982e4fa5d077d9df559bc4c2d38e04619060200160405180910390a350505061096960018055565b5050565b610975612608565b61097d612662565b6109856126b2565b565b61098f612608565b610997612562565b604051632142170760e11b81526001600160a01b038316906342842e0e906109c790309087908690600401612c38565b600060405180830381600087803b1580156109e157600080fd5b505af11580156109f5573d6000803e3d6000fd5b50505050816001600160a01b0316836001600160a01b03167feea167c0d54572a80626f5fd092a7c1f7b5d8e309533747e7e7d77b0558d6cf183604051610a3e91815260200190565b60405180910390a3610a4f60018055565b505050565b610a5c612562565b610a646125bb565b610a6d33612544565b15610a8b5760405163e3372e2d60e01b815260040160405180910390fd5b848314801590610a9b5750828114155b15610ab95760405163510a1bd560e01b815260040160405180910390fd5b60005b85811015610bd757610aee878783818110610ad957610ad9612d13565b90506020020160208101906106159190612a1f565b15610b0c5760405163e3372e2d60e01b815260040160405180910390fd5b868682818110610b1e57610b1e612d13565b9050602002016020810190610b339190612a1f565b6001600160a01b031663f242432a3330888886818110610b5557610b55612d13565b90506020020135878787818110610b6e57610b6e612d13565b905060200201356040518563ffffffff1660e01b8152600401610b949493929190612d29565b600060405180830381600087803b158015610bae57600080fd5b505af1158015610bc2573d6000803e3d6000fd5b5050505080610bd090612d77565b9050610abc565b50600254600090610be9908790612d90565b600354909150600090610bfd908890612d90565b6040516370a0823160e01b81523060048201529091507f00000000000000000000000000000000000000000000000000000000000000006001600160a01b0316906370a0823190602401602060405180830381865afa158015610c64573d6000803e3d6000fd5b505050506040513d601f19601f82011682018060405250810190610c889190612cc3565b8210610ca7576040516312fc262f60e21b815260040160405180910390fd5b6040516370a0823160e01b81523360048201527f00000000000000000000000000000000000000000000000000000000000000006001600160a01b0316906370a0823190602401602060405180830381865afa158015610d0b573d6000803e3d6000fd5b505050506040513d601f19601f82011682018060405250810190610d2f9190612cc3565b811115610d4f5760405163af4a8abf60e01b815260040160405180910390fd5b600480546040516323b872dd60e01b81526000926001600160a01b037f00000000000000000000000000000000000000000000000000000000000000008116936323b872dd93610da89333939290921691889101612c38565b6020604051808303816000875af1158015610dc7573d6000803e3d6000fd5b505050506040513d601f19601f82011682018060405250810190610deb9190612c5c565b905080610e0a5760405162461bcd60e51b815260040161071e90612c79565b60405163a9059cbb60e01b8152336004820152602481018490526000907f00000000000000000000000000000000000000000000000000000000000000006001600160a01b03169063a9059cbb906044016020604051808303816000875af1158015610e7a573d6000803e3d6000fd5b505050506040513d601f19601f82011682018060405250810190610e9e9190612c5c565b905080610ebd5760405162461bcd60e51b815260040161071e90612cdc565b336001600160a01b03167f5cc48339dc7acaa374ce235486a869df0c22264b939fe7a9dbb5827bfffdbd208b8b8b8b8b8b604051610f0096959493929190612e26565b60405180910390a250505050610f1560018055565b505050505050565b610f25612562565b610f2d6125bb565b610f3633612544565b15610f545760405163e3372e2d60e01b815260040160405180910390fd5b828114610f745760405163510a1bd560e01b815260040160405180910390fd5b60005b8381101561106357610f94858583818110610ad957610ad9612d13565b15610fb25760405163e3372e2d60e01b815260040160405180910390fd5b848482818110610fc457610fc4612d13565b9050602002016020810190610fd99190612a1f565b6001600160a01b03166342842e0e3330868686818110610ffb57610ffb612d13565b905060200201356040518463ffffffff1660e01b815260040161102093929190612c38565b600060405180830381600087803b15801561103a57600080fd5b505af115801561104e573d6000803e3d6000fd5b505050508061105c90612d77565b9050610f77565b50600254600090611075908590612d90565b600354909150600090611089908690612d90565b6040516370a0823160e01b81523060048201529091507f00000000000000000000000000000000000000000000000000000000000000006001600160a01b0316906370a0823190602401602060405180830381865afa1580156110f0573d6000803e3d6000fd5b505050506040513d601f19601f820116820180604052508101906111149190612cc3565b8210611133576040516312fc262f60e21b815260040160405180910390fd5b6040516370a0823160e01b81523360048201527f00000000000000000000000000000000000000000000000000000000000000006001600160a01b0316906370a0823190602401602060405180830381865afa158015611197573d6000803e3d6000fd5b505050506040513d601f19601f820116820180604052508101906111bb9190612cc3565b8111156111db5760405163af4a8abf60e01b815260040160405180910390fd5b600480546040516323b872dd60e01b81526000926001600160a01b037f00000000000000000000000000000000000000000000000000000000000000008116936323b872dd936112349333939290921691889101612c38565b6020604051808303816000875af1158015611253573d6000803e3d6000fd5b505050506040513d601f19601f820116820180604052508101906112779190612c5c565b9050806112965760405162461bcd60e51b815260040161071e90612c79565b60405163a9059cbb60e01b8152336004820152602481018490526000907f00000000000000000000000000000000000000000000000000000000000000006001600160a01b03169063a9059cbb906044016020604051808303816000875af1158015611306573d6000803e3d6000fd5b505050506040513d601f19601f8201168201806040525081019061132a9190612c5c565b9050806113495760405162461bcd60e51b815260040161071e90612cdc565b336001600160a01b03167f542d12e45d3a85bc8025165dfb63ae08b833c5a5d0f431130a30f4dbc2a4a316898989896040516113889493929190612e6f565b60405180910390a25050505061139d60018055565b50505050565b6113ab612608565b6113b3612562565b6001600160a01b0383166113da5760405163ddbadd5f60e01b815260040160405180910390fd5b6040516370a0823160e01b81523060048201526001600160a01b038316906370a0823190602401602060405180830381865afa15801561141e573d6000803e3d6000fd5b505050506040513d601f19601f820116820180604052508101906114429190612cc3565b8111156114d5576040516370a0823160e01b81523060048201526001600160a01b038316906370a0823190602401602060405180830381865afa15801561148d573d6000803e3d6000fd5b505050506040513d601f19601f820116820180604052508101906114b19190612cc3565b60405163cf47918160e01b815260048101919091526024810182905260440161071e565b60405163a9059cbb60e01b81526001600160a01b038481166004830152602482018390526000919084169063a9059cbb906044016020604051808303816000875af1158015611528573d6000803e3d6000fd5b505050506040513d601f19601f8201168201806040525081019061154c9190612c5c565b90508061159b5760405162461bcd60e51b815260206004820152601b60248201527f4661696c656420455243323020546f6b656e205472616e736665720000000000604482015260640161071e565b826001600160a01b0316846001600160a01b03167fbfed55bdcd242e3dd0f60ddd7d1e87c67f61c34cd9527b3e6455d841b1025362846040516115e091815260200190565b60405180910390a350610a4f60018055565b6115fa612608565b6001600160a01b0381166116215760405163ddbadd5f60e01b815260040160405180910390fd5b600480546001600160a01b038381166001600160a01b031983168117909355604080519190921680825260208201939093527f011730b99681d3fb73988d19665fc2bc8e090eeb93e1ca54657640952764742f91015b60405180910390a15050565b61168b612608565b6109856000612707565b61169d612608565b6116a56125bb565b610985612757565b6116b5612562565b6116bd6125bb565b6116c633612544565b156116e45760405163e3372e2d60e01b815260040160405180910390fd5b8281146117045760405163510a1bd560e01b815260040160405180910390fd5b60005b8381101561182557611724858583818110610ad957610ad9612d13565b156117425760405163e3372e2d60e01b815260040160405180910390fd5b600085858381811061175657611756612d13565b905060200201602081019061176b9190612a1f565b6001600160a01b03166323b872dd333087878781811061178d5761178d612d13565b905060200201356040518463ffffffff1660e01b81526004016117b293929190612c38565b6020604051808303816000875af11580156117d1573d6000803e3d6000fd5b505050506040513d601f19601f820116820180604052508101906117f59190612c5c565b9050806118145760405162461bcd60e51b815260040161071e90612c79565b5061181e81612d77565b9050611707565b50600254600090611837908590612d90565b60035490915060009061184b908690612d90565b6040516370a0823160e01b81523060048201529091507f00000000000000000000000000000000000000000000000000000000000000006001600160a01b0316906370a0823190602401602060405180830381865afa1580156118b2573d6000803e3d6000fd5b505050506040513d601f19601f820116820180604052508101906118d69190612cc3565b82106118f5576040516312fc262f60e21b815260040160405180910390fd5b6040516370a0823160e01b81523360048201527f00000000000000000000000000000000000000000000000000000000000000006001600160a01b0316906370a0823190602401602060405180830381865afa158015611959573d6000803e3d6000fd5b505050506040513d601f19601f8201168201806040525081019061197d9190612cc3565b81111561199d5760405163af4a8abf60e01b815260040160405180910390fd5b600480546040516323b872dd60e01b81526000926001600160a01b037f00000000000000000000000000000000000000000000000000000000000000008116936323b872dd936119f69333939290921691889101612c38565b6020604051808303816000875af1158015611a15573d6000803e3d6000fd5b505050506040513d601f19601f82011682018060405250810190611a399190612c5c565b905080611a585760405162461bcd60e51b815260040161071e90612c79565b60405163a9059cbb60e01b8152336004820152602481018490526000907f00000000000000000000000000000000000000000000000000000000000000006001600160a01b03169063a9059cbb906044016020604051808303816000875af1158015611ac8573d6000803e3d6000fd5b505050506040513d601f19601f82011682018060405250810190611aec9190612c5c565b905080611b0b5760405162461bcd60e51b815260040161071e90612cdc565b336001600160a01b03167f7cf9954877d8ebbe6c5438ed22e1429b1a542ba9b3136d6ca547d4d5e24e5ffd898989896040516113889493929190612e6f565b611b52612608565b611b5a612562565b6001600160a01b038216611b815760405163ddbadd5f60e01b815260040160405180910390fd5b47811115611bab5760405163cf47918160e01b81524760048201526024810182905260440161071e565b6000826001600160a01b03168260405160006040518083038185875af1925050503d8060008114611bf8576040519150601f19603f3d011682016040523d82523d6000602084013e611bfd565b606091505b5050905080611c465760405162461bcd60e51b81526020600482015260156024820152742330b4b632b2103a379039b2b7321020ab20ac32b960591b604482015260640161071e565b826001600160a01b03167f992adad2762542d8fdfd4533fad14b8033ba24139e2f78dc7100711afff2467183604051611c8191815260200190565b60405180910390a25061096960018055565b611c9b612608565b611ca3612562565b604051637921219560e11b81526001600160a01b0384169063f242432a90611cd5903090889087908790600401612d29565b600060405180830381600087803b158015611cef57600080fd5b505af1158015611d03573d6000803e3d6000fd5b505060408051858152602081018590526001600160a01b038088169450881692507fd4591c66399adca9b87b95d00144abee6c7dfe740c088c94106e50bb7e9d77dc910160405180910390a361139d60018055565b611d60612608565b6001600160a01b03919091166000908152600560205260409020805460ff1916911515919091179055565b611d93612608565b80600003611db75760405163b8b32d2b60e01b81526004810182905260240161071e565b600380549082905560408051828152602081018490527f6447894e1284d506804c4712de29291e4bac8c5f165551941531389054d067429101611677565b611dfd612562565b611e056125bb565b611e0e33612544565b80611e1d5750611e1d83612544565b15611e3b5760405163e3372e2d60e01b815260040160405180910390fd5b600480546003546040516323b872dd60e01b81526000936001600160a01b037f00000000000000000000000000000000000000000000000000000000000000008116946323b872dd94611e979433949290931692909101612c38565b6020604051808303816000875af1158015611eb6573d6000803e3d6000fd5b505050506040513d601f19601f82011682018060405250810190611eda9190612c5c565b905080611ef95760405162461bcd60e51b815260040161071e90612c79565b604051637921219560e11b81526001600160a01b0385169063f242432a90611f2b903390309088908890600401612d29565b600060405180830381600087803b158015611f4557600080fd5b505af1158015611f59573d6000803e3d6000fd5b50506040516370a0823160e01b81523060048201527f00000000000000000000000000000000000000000000000000000000000000006001600160a01b031692506370a082319150602401602060405180830381865afa158015611fc1573d6000803e3d6000fd5b505050506040513d601f19601f82011682018060405250810190611fe59190612cc3565b60025410612006576040516312fc262f60e21b815260040160405180910390fd5b60025460405163a9059cbb60e01b815233600482015260248101919091526000907f00000000000000000000000000000000000000000000000000000000000000006001600160a01b03169063a9059cbb906044016020604051808303816000875af115801561207a573d6000803e3d6000fd5b505050506040513d601f19601f8201168201806040525081019061209e9190612c5c565b9050806120bd5760405162461bcd60e51b815260040161071e90612cdc565b60408051858152602081018590526001600160a01b0387169133917fcfeaf82a7e1ef3c3d741a48ab668a98b0f8a7af46c42b1fee9cdafebb1f23837910160405180910390a35050610a4f60018055565b612116612608565b8060000361213a5760405163b8b32d2b60e01b81526004810182905260240161071e565b600280549082905560408051828152602081018490527f3a466fca4909a209ea4041322f624f8633bdf1093af21964705fb9a6c21994599101611677565b612180612608565b6001600160a01b0381166121aa57604051631e4fbdf760e01b81526000600482015260240161071e565b6000546001600160a01b039081169082168190036121e65760405163227e4ce960e01b81526001600160a01b038216600482015260240161071e565b6121ef82612707565b816001600160a01b0316816001600160a01b03167f8be0079c531659141344cd1fd0a4f28419497f9722a3daafe3b4186f6b6457e060405160405180910390a35050565b61223b612562565b6122436125bb565b61224c33612544565b8061225b575061225b82612544565b156122795760405163e3372e2d60e01b815260040160405180910390fd5b600480546003546040516323b872dd60e01b81526000936001600160a01b037f00000000000000000000000000000000000000000000000000000000000000008116946323b872dd946122d59433949290931692909101612c38565b6020604051808303816000875af11580156122f4573d6000803e3d6000fd5b505050506040513d601f19601f820116820180604052508101906123189190612c5c565b9050806123375760405162461bcd60e51b815260040161071e90612c79565b6040516323b872dd60e01b81526001600160a01b038416906323b872dd9061236790339030908790600401612c38565b600060405180830381600087803b15801561238157600080fd5b505af1158015612395573d6000803e3d6000fd5b50506040516370a0823160e01b81523060048201527f00000000000000000000000000000000000000000000000000000000000000006001600160a01b031692506370a082319150602401602060405180830381865afa1580156123fd573d6000803e3d6000fd5b505050506040513d601f19601f820116820180604052508101906124219190612cc3565b60025410612442576040516312fc262f60e21b815260040160405180910390fd5b60025460405163a9059cbb60e01b815233600482015260248101919091526000907f00000000000000000000000000000000000000000000000000000000000000006001600160a01b03169063a9059cbb906044016020604051808303816000875af11580156124b6573d6000803e3d6000fd5b505050506040513d601f19601f820116820180604052508101906124da9190612c5c565b9050806124f95760405162461bcd60e51b815260040161071e90612cdc565b6040518381526001600160a01b0385169033907f9de20980eca8ff38af105e13b5f0e7253e79883f68829f569fad77e76d0948269060200160405180910390a3505061096960018055565b6001600160a01b031660009081526005602052604090205460ff1690565b6002600154036125b45760405162461bcd60e51b815260206004820152601f60248201527f5265656e7472616e637947756172643a207265656e7472616e742063616c6c00604482015260640161071e565b6002600155565b600054600160a01b900460ff16156109855760405162461bcd60e51b815260206004820152601060248201526f14185d5cd8589b194e881c185d5cd95960821b604482015260640161071e565b6000546001600160a01b031633146109855760405162461bcd60e51b815260206004820181905260248201527f4f776e61626c653a2063616c6c6572206973206e6f7420746865206f776e6572604482015260640161071e565b600054600160a01b900460ff166109855760405162461bcd60e51b815260206004820152601460248201527314185d5cd8589b194e881b9bdd081c185d5cd95960621b604482015260640161071e565b6126ba612662565b6000805460ff60a01b191690557f5db9ee0a495bf2e6ff9c91a7834c1ba4fdd244a5e8aa4e537bd38aeae4b073aa335b6040516001600160a01b03909116815260200160405180910390a1565b600080546001600160a01b038381166001600160a01b0319831681178455604051919092169283917f8be0079c531659141344cd1fd0a4f28419497f9722a3daafe3b4186f6b6457e09190a35050565b61275f6125bb565b6000805460ff60a01b1916600160a01b1790557f62e78cea01bee320cd4e420270b5ea74000d11b0c9f74754ebdbfc544b05a2586126ea3390565b80356001600160a01b03811681146127b157600080fd5b919050565b600080604083850312156127c957600080fd5b6127d28361279a565b946020939093013593505050565b60008083601f8401126127f257600080fd5b50813567ffffffffffffffff81111561280a57600080fd5b60208301915083602082850101111561282257600080fd5b9250929050565b60008060008060006080868803121561284157600080fd5b61284a8661279a565b94506128586020870161279a565b935060408601359250606086013567ffffffffffffffff81111561287b57600080fd5b612887888289016127e0565b969995985093965092949392505050565b6000806000606084860312156128ad57600080fd5b6128b68461279a565b92506128c46020850161279a565b9150604084013590509250925092565b60008083601f8401126128e657600080fd5b50813567ffffffffffffffff8111156128fe57600080fd5b6020830191508360208260051b850101111561282257600080fd5b6000806000806000806060878903121561293257600080fd5b863567ffffffffffffffff8082111561294a57600080fd5b6129568a838b016128d4565b9098509650602089013591508082111561296f57600080fd5b61297b8a838b016128d4565b9096509450604089013591508082111561299457600080fd5b506129a189828a016128d4565b979a9699509497509295939492505050565b600080600080604085870312156129c957600080fd5b843567ffffffffffffffff808211156129e157600080fd5b6129ed888389016128d4565b90965094506020870135915080821115612a0657600080fd5b50612a13878288016128d4565b95989497509550505050565b600060208284031215612a3157600080fd5b612a3a8261279a565b9392505050565b60008060008060808587031215612a5757600080fd5b612a608561279a565b9350612a6e6020860161279a565b93969395505050506040820135916060013590565b8015158114612a9157600080fd5b50565b60008060408385031215612aa757600080fd5b612ab08361279a565b91506020830135612ac081612a83565b809150509250929050565b60008060008060008060008060a0898b031215612ae757600080fd5b612af08961279a565b9750612afe60208a0161279a565b9650604089013567ffffffffffffffff80821115612b1b57600080fd5b612b278c838d016128d4565b909850965060608b0135915080821115612b4057600080fd5b612b4c8c838d016128d4565b909650945060808b0135915080821115612b6557600080fd5b50612b728b828c016127e0565b999c989b5096995094979396929594505050565b600060208284031215612b9857600080fd5b5035919050565b600080600060608486031215612bb457600080fd5b612bbd8461279a565b95602085013595506040909401359392505050565b60008060008060008060a08789031215612beb57600080fd5b612bf48761279a565b9550612c026020880161279a565b94506040870135935060608701359250608087013567ffffffffffffffff811115612c2c57600080fd5b6129a189828a016127e0565b6001600160a01b039384168152919092166020820152604081019190915260600190565b600060208284031215612c6e57600080fd5b8151612a3a81612a83565b6020808252602a908201527f4661696c656420746f207472616e7366657220455243323020746f6b656e20746040820152691bc818dbdb9d1c9858dd60b21b606082015260800190565b600060208284031215612cd557600080fd5b5051919050565b6020808252601a908201527f5061796d656e7420746f20637573746f6d6572206661696c6564000000000000604082015260600190565b634e487b7160e01b600052603260045260246000fd5b6001600160a01b0394851681529290931660208301526040820152606081019190915260a06080820181905260009082015260c00190565b634e487b7160e01b600052601160045260246000fd5b600060018201612d8957612d89612d61565b5060010190565b8082028115828204841417612da757612da7612d61565b92915050565b8183526000602080850194508260005b85811015612de9576001600160a01b03612dd68361279a565b1687529582019590820190600101612dbd565b509495945050505050565b81835260006001600160fb1b03831115612e0d57600080fd5b8260051b80836020870137939093016020019392505050565b606081526000612e3a60608301888a612dad565b8281036020840152612e4d818789612df4565b90508281036040840152612e62818587612df4565b9998505050505050505050565b604081526000612e83604083018688612dad565b8281036020840152612e96818587612df4565b97965050505050505056fea2646970667358221220d3d0b0383ac9132ae4bddc8239b1246e75f1bf0c2c4a424d53594b9954f5a4a464736f6c63430008140033","linkReferences":{}},"methodIdentifiers":{"changeServiceFee(uint256)":"d3e256bf","changeTokenPaymentAmount(uint256)":"d951ece3","changeroosterWallet(address)":"5fde3454","deniedList(address)":"f39737b2","deny(address,bool)":"af5f7085","getBalance()":"12065fe0","getCurrentServiceFee()":"b02cff9a","getTokenPaymentAmount()":"b69cf175","getroosterWalletAddress()":"5f08013f","harvestERC1155(address,uint256,uint256)":"d8d3dcb9","harvestERC20(address,uint256)":"066b7e74","harvestERC721(address,uint256)":"f5b35a5f","harvestMultipleERC1155(address[],uint256[],uint256[])":"40da45d9","harvestMultipleERC20(address[],uint256[])":"88c422b1","harvestMultipleERC721(address[],uint256[])":"48901b7f","i_coq()":"e793a3ca","isDeniedListedWallet(address)":"f89b9c55","isPaused()":"b187bd26","onERC1155BatchReceived(address,address,uint256[],uint256[],bytes)":"bc197c81","onERC1155Received(address,address,uint256,uint256,bytes)":"f23a6e61","onERC721Received(address,address,uint256,bytes)":"150b7a02","owner()":"8da5cb5b","pause()":"8456cb59","paused()":"5c975abb","renounceOwnership()":"715018a6","roosterWallet()":"451aee73","serviceFee()":"8abdf5aa","tokenPaymentAmount()":"34f44cfe","transferOwnership(address)":"f2fde38b","unpause()":"3f4ba83a","withdrawAvax(address,uint256)":"97ae06b5","withdrawERC1155(address,address,uint256,uint256)":"a0edb48b","withdrawERC20Token(address,address,uint256)":"57d1b31b","withdrawERC721(address,address,uint256)":"4025feb2"},"id":0}