{"abi":[{"type":"constructor","inputs":[{"name":"name","type":"string","internalType":"string"},{"name":"symbol","type":"string","internalType":"string"}],"stateMutability":"nonpayable"},{"type":"function","name":"approve","inputs":[{"name":"to","type":"address","internalType":"address"},{"name":"tokenId","type":"uint256","internalType":"uint256"}],"outputs":[],"stateMutability":"nonpayable"},{"type":"function","name":"balanceOf","inputs":[{"name":"owner","type":"address","internalType":"address"}],"outputs":[{"name":"","type":"uint256","internalType":"uint256"}],"stateMutability":"view"},{"type":"function","name":"getApproved","inputs":[{"name":"tokenId","type":"uint256","internalType":"uint256"}],"outputs":[{"name":"","type":"address","internalType":"address"}],"stateMutability":"view"},{"type":"function","name":"isApprovedForAll","inputs":[{"name":"owner","type":"address","internalType":"address"},{"name":"operator","type":"address","internalType":"address"}],"outputs":[{"name":"","type":"bool","internalType":"bool"}],"stateMutability":"view"},{"type":"function","name":"name","inputs":[],"outputs":[{"name":"","type":"string","internalType":"string"}],"stateMutability":"view"},{"type":"function","name":"ownerOf","inputs":[{"name":"tokenId","type":"uint256","internalType":"uint256"}],"outputs":[{"name":"","type":"address","internalType":"address"}],"stateMutability":"view"},{"type":"function","name":"safeMint","inputs":[{"name":"to","type":"address","internalType":"address"}],"outputs":[],"stateMutability":"nonpayable"},{"type":"function","name":"safeTransferFrom","inputs":[{"name":"from","type":"address","internalType":"address"},{"name":"to","type":"address","internalType":"address"},{"name":"tokenId","type":"uint256","internalType":"uint256"}],"outputs":[],"stateMutability":"nonpayable"},{"type":"function","name":"safeTransferFrom","inputs":[{"name":"from","type":"address","internalType":"address"},{"name":"to","type":"address","internalType":"address"},{"name":"tokenId","type":"uint256","internalType":"uint256"},{"name":"data","type":"bytes","internalType":"bytes"}],"outputs":[],"stateMutability":"nonpayable"},{"type":"function","name":"setApprovalForAll","inputs":[{"name":"operator","type":"address","internalType":"address"},{"name":"approved","type":"bool","internalType":"bool"}],"outputs":[],"stateMutability":"nonpayable"},{"type":"function","name":"supportsInterface","inputs":[{"name":"interfaceId","type":"bytes4","internalType":"bytes4"}],"outputs":[{"name":"","type":"bool","internalType":"bool"}],"stateMutability":"view"},{"type":"function","name":"symbol","inputs":[],"outputs":[{"name":"","type":"string","internalType":"string"}],"stateMutability":"view"},{"type":"function","name":"tokenURI","inputs":[{"name":"tokenId","type":"uint256","internalType":"uint256"}],"outputs":[{"name":"","type":"string","internalType":"string"}],"stateMutability":"view"},{"type":"function","name":"transferFrom","inputs":[{"name":"from","type":"address","internalType":"address"},{"name":"to","type":"address","internalType":"address"},{"name":"tokenId","type":"uint256","internalType":"uint256"}],"outputs":[],"stateMutability":"nonpayable"},{"type":"event","name":"Approval","inputs":[{"name":"owner","type":"address","indexed":true,"internalType":"address"},{"name":"approved","type":"address","indexed":true,"internalType":"address"},{"name":"tokenId","type":"uint256","indexed":true,"internalType":"uint256"}],"anonymous":false},{"type":"event","name":"ApprovalForAll","inputs":[{"name":"owner","type":"address","indexed":true,"internalType":"address"},{"name":"operator","type":"address","indexed":true,"internalType":"address"},{"name":"approved","type":"bool","indexed":false,"internalType":"bool"}],"anonymous":false},{"type":"event","name":"Transfer","inputs":[{"name":"from","type":"address","indexed":true,"internalType":"address"},{"name":"to","type":"address","indexed":true,"internalType":"address"},{"name":"tokenId","type":"uint256","indexed":true,"internalType":"uint256"}],"anonymous":false}],"bytecode":{"object":"0x60806040523480156200001157600080fd5b50604051620016f2380380620016f2833981016040819052620000349162000123565b818160006200004483826200021c565b5060016200005382826200021c565b5050505050620002e8565b634e487b7160e01b600052604160045260246000fd5b600082601f8301126200008657600080fd5b81516001600160401b0380821115620000a357620000a36200005e565b604051601f8301601f19908116603f01168101908282118183101715620000ce57620000ce6200005e565b81604052838152602092508683858801011115620000eb57600080fd5b600091505b838210156200010f5785820183015181830184015290820190620000f0565b600093810190920192909252949350505050565b600080604083850312156200013757600080fd5b82516001600160401b03808211156200014f57600080fd5b6200015d8683870162000074565b935060208501519150808211156200017457600080fd5b50620001838582860162000074565b9150509250929050565b600181811c90821680620001a257607f821691505b602082108103620001c357634e487b7160e01b600052602260045260246000fd5b50919050565b601f8211156200021757600081815260208120601f850160051c81016020861015620001f25750805b601f850160051c820191505b818110156200021357828155600101620001fe565b5050505b505050565b81516001600160401b038111156200023857620002386200005e565b62000250816200024984546200018d565b84620001c9565b602080601f8311600181146200028857600084156200026f5750858301515b600019600386901b1c1916600185901b17855562000213565b600085815260208120601f198616915b82811015620002b95788860151825594840194600190910190840162000298565b5085821015620002d85787850151600019600388901b60f8161c191681555b5050505050600190811b01905550565b6113fa80620002f86000396000f3fe608060405234801561001057600080fd5b50600436106100ea5760003560e01c80636352211e1161008c578063a22cb46511610066578063a22cb465146101e1578063b88d4fde146101f4578063c87b56dd14610207578063e985e9c51461021a57600080fd5b80636352211e146101a557806370a08231146101b857806395d89b41146101d957600080fd5b8063095ea7b3116100c8578063095ea7b31461015757806323b872dd1461016c57806340d097c31461017f57806342842e0e1461019257600080fd5b806301ffc9a7146100ef57806306fdde0314610117578063081812fc1461012c575b600080fd5b6101026100fd366004610f31565b61022d565b60405190151581526020015b60405180910390f35b61011f61027f565b60405161010e9190610f9e565b61013f61013a366004610fb1565b610311565b6040516001600160a01b03909116815260200161010e565b61016a610165366004610fe6565b610338565b005b61016a61017a366004611010565b610452565b61016a61018d36600461104c565b610483565b61016a6101a0366004611010565b6104a7565b61013f6101b3366004610fb1565b6104c2565b6101cb6101c636600461104c565b610522565b60405190815260200161010e565b61011f6105a8565b61016a6101ef366004611067565b6105b7565b61016a6102023660046110b9565b6105c6565b61011f610215366004610fb1565b6105fe565b610102610228366004611195565b610672565b60006001600160e01b031982166380ac58cd60e01b148061025e57506001600160e01b03198216635b5e139f60e01b145b8061027957506301ffc9a760e01b6001600160e01b03198316145b92915050565b60606000805461028e906111c8565b80601f01602080910402602001604051908101604052809291908181526020018280546102ba906111c8565b80156103075780601f106102dc57610100808354040283529160200191610307565b820191906000526020600020905b8154815290600101906020018083116102ea57829003601f168201915b5050505050905090565b600061031c826106a0565b506000908152600460205260409020546001600160a01b031690565b6000610343826104c2565b9050806001600160a01b0316836001600160a01b0316036103b55760405162461bcd60e51b815260206004820152602160248201527f4552433732313a20617070726f76616c20746f2063757272656e74206f776e656044820152603960f91b60648201526084015b60405180910390fd5b336001600160a01b03821614806103d157506103d18133610672565b6104435760405162461bcd60e51b815260206004820152603d60248201527f4552433732313a20617070726f76652063616c6c6572206973206e6f7420746f60448201527f6b656e206f776e6572206f7220617070726f76656420666f7220616c6c00000060648201526084016103ac565b61044d8383610702565b505050565b61045c3382610770565b6104785760405162461bcd60e51b81526004016103ac90611202565b61044d8383836107cf565b61048f81600654610940565b6006805490600061049f83611265565b919050555050565b61044d838383604051806020016040528060008152506105c6565b6000818152600260205260408120546001600160a01b0316806102795760405162461bcd60e51b8152602060048201526018602482015277115490cdcc8c4e881a5b9d985b1a59081d1bdad95b88125160421b60448201526064016103ac565b60006001600160a01b03821661058c5760405162461bcd60e51b815260206004820152602960248201527f4552433732313a2061646472657373207a65726f206973206e6f7420612076616044820152683634b21037bbb732b960b91b60648201526084016103ac565b506001600160a01b031660009081526003602052604090205490565b60606001805461028e906111c8565b6105c233838361095a565b5050565b6105d03383610770565b6105ec5760405162461bcd60e51b81526004016103ac90611202565b6105f884848484610a28565b50505050565b6060610609826106a0565b600061062060408051602081019091526000815290565b90506000815111610640576040518060200160405280600081525061066b565b8061064a84610a5b565b60405160200161065b92919061127e565b6040516020818303038152906040525b9392505050565b6001600160a01b03918216600090815260056020908152604080832093909416825291909152205460ff1690565b6000818152600260205260409020546001600160a01b03166106ff5760405162461bcd60e51b8152602060048201526018602482015277115490cdcc8c4e881a5b9d985b1a59081d1bdad95b88125160421b60448201526064016103ac565b50565b600081815260046020526040902080546001600160a01b0319166001600160a01b0384169081179091558190610737826104c2565b6001600160a01b03167f8c5be1e5ebec7d5bd14f71427d1e84f3dd0314c0f7b2291e5b200ac8c7c3b92560405160405180910390a45050565b60008061077c836104c2565b9050806001600160a01b0316846001600160a01b031614806107a357506107a38185610672565b806107c75750836001600160a01b03166107bc84610311565b6001600160a01b0316145b949350505050565b826001600160a01b03166107e2826104c2565b6001600160a01b0316146108085760405162461bcd60e51b81526004016103ac906112ad565b6001600160a01b03821661086a5760405162461bcd60e51b8152602060048201526024808201527f4552433732313a207472616e7366657220746f20746865207a65726f206164646044820152637265737360e01b60648201526084016103ac565b6108778383836001610aee565b826001600160a01b031661088a826104c2565b6001600160a01b0316146108b05760405162461bcd60e51b81526004016103ac906112ad565b600081815260046020908152604080832080546001600160a01b03199081169091556001600160a01b0387811680865260038552838620805460001901905590871680865283862080546001019055868652600290945282852080549092168417909155905184937fddf252ad1be2c89b69c2b068fc378daa952ba7f163c4a11628f55a4df523b3ef91a4505050565b6105c2828260405180602001604052806000815250610b76565b816001600160a01b0316836001600160a01b0316036109bb5760405162461bcd60e51b815260206004820152601960248201527f4552433732313a20617070726f766520746f2063616c6c65720000000000000060448201526064016103ac565b6001600160a01b03838116600081815260056020908152604080832094871680845294825291829020805460ff191686151590811790915591519182527f17307eab39ab6107e8899845ad3d59bd9653f200f220920489ca2b5937696c31910160405180910390a3505050565b610a338484846107cf565b610a3f84848484610ba9565b6105f85760405162461bcd60e51b81526004016103ac906112f2565b60606000610a6883610caa565b600101905060008167ffffffffffffffff811115610a8857610a886110a3565b6040519080825280601f01601f191660200182016040528015610ab2576020820181803683370190505b5090508181016020015b600019016f181899199a1a9b1b9c1cb0b131b232b360811b600a86061a8153600a8504945084610abc57509392505050565b60018111156105f8576001600160a01b03841615610b34576001600160a01b03841660009081526003602052604081208054839290610b2e908490611344565b90915550505b6001600160a01b038316156105f8576001600160a01b03831660009081526003602052604081208054839290610b6b908490611357565b909155505050505050565b610b808383610d82565b610b8d6000848484610ba9565b61044d5760405162461bcd60e51b81526004016103ac906112f2565b60006001600160a01b0384163b15610c9f57604051630a85bd0160e11b81526001600160a01b0385169063150b7a0290610bed90339089908890889060040161136a565b6020604051808303816000875af1925050508015610c28575060408051601f3d908101601f19168201909252610c25918101906113a7565b60015b610c85573d808015610c56576040519150601f19603f3d011682016040523d82523d6000602084013e610c5b565b606091505b508051600003610c7d5760405162461bcd60e51b81526004016103ac906112f2565b805181602001fd5b6001600160e01b031916630a85bd0160e11b1490506107c7565b506001949350505050565b60008072184f03e93ff9f4daa797ed6e38ed64bf6a1f0160401b8310610ce95772184f03e93ff9f4daa797ed6e38ed64bf6a1f0160401b830492506040015b6d04ee2d6d415b85acef81000000008310610d15576d04ee2d6d415b85acef8100000000830492506020015b662386f26fc100008310610d3357662386f26fc10000830492506010015b6305f5e1008310610d4b576305f5e100830492506008015b6127108310610d5f57612710830492506004015b60648310610d71576064830492506002015b600a83106102795760010192915050565b6001600160a01b038216610dd85760405162461bcd60e51b815260206004820181905260248201527f4552433732313a206d696e7420746f20746865207a65726f206164647265737360448201526064016103ac565b6000818152600260205260409020546001600160a01b031615610e3d5760405162461bcd60e51b815260206004820152601c60248201527f4552433732313a20746f6b656e20616c7265616479206d696e7465640000000060448201526064016103ac565b610e4b600083836001610aee565b6000818152600260205260409020546001600160a01b031615610eb05760405162461bcd60e51b815260206004820152601c60248201527f4552433732313a20746f6b656e20616c7265616479206d696e7465640000000060448201526064016103ac565b6001600160a01b038216600081815260036020908152604080832080546001019055848352600290915280822080546001600160a01b0319168417905551839291907fddf252ad1be2c89b69c2b068fc378daa952ba7f163c4a11628f55a4df523b3ef908290a45050565b6001600160e01b0319811681146106ff57600080fd5b600060208284031215610f4357600080fd5b813561066b81610f1b565b60005b83811015610f69578181015183820152602001610f51565b50506000910152565b60008151808452610f8a816020860160208601610f4e565b601f01601f19169290920160200192915050565b60208152600061066b6020830184610f72565b600060208284031215610fc357600080fd5b5035919050565b80356001600160a01b0381168114610fe157600080fd5b919050565b60008060408385031215610ff957600080fd5b61100283610fca565b946020939093013593505050565b60008060006060848603121561102557600080fd5b61102e84610fca565b925061103c60208501610fca565b9150604084013590509250925092565b60006020828403121561105e57600080fd5b61066b82610fca565b6000806040838503121561107a57600080fd5b61108383610fca565b91506020830135801515811461109857600080fd5b809150509250929050565b634e487b7160e01b600052604160045260246000fd5b600080600080608085870312156110cf57600080fd5b6110d885610fca565b93506110e660208601610fca565b925060408501359150606085013567ffffffffffffffff8082111561110a57600080fd5b818701915087601f83011261111e57600080fd5b813581811115611130576111306110a3565b604051601f8201601f19908116603f01168101908382118183101715611158576111586110a3565b816040528281528a602084870101111561117157600080fd5b82602086016020830137600060208483010152809550505050505092959194509250565b600080604083850312156111a857600080fd5b6111b183610fca565b91506111bf60208401610fca565b90509250929050565b600181811c908216806111dc57607f821691505b6020821081036111fc57634e487b7160e01b600052602260045260246000fd5b50919050565b6020808252602d908201527f4552433732313a2063616c6c6572206973206e6f7420746f6b656e206f776e6560408201526c1c881bdc88185c1c1c9bdd9959609a1b606082015260800190565b634e487b7160e01b600052601160045260246000fd5b6000600182016112775761127761124f565b5060010190565b60008351611290818460208801610f4e565b8351908301906112a4818360208801610f4e565b01949350505050565b60208082526025908201527f4552433732313a207472616e736665722066726f6d20696e636f72726563742060408201526437bbb732b960d91b606082015260800190565b60208082526032908201527f4552433732313a207472616e7366657220746f206e6f6e20455243373231526560408201527131b2b4bb32b91034b6b83632b6b2b73a32b960711b606082015260800190565b818103818111156102795761027961124f565b808201808211156102795761027961124f565b6001600160a01b038581168252841660208201526040810183905260806060820181905260009061139d90830184610f72565b9695505050505050565b6000602082840312156113b957600080fd5b815161066b81610f1b56fea264697066735822122007ba3c2f79b268530211ba311979bfd74a5114802afff6cbdfdf37fc3e3d53f164736f6c63430008140033","linkReferences":{}},"methodIdentifiers":{"approve(address,uint256)":"095ea7b3","balanceOf(address)":"70a08231","getApproved(uint256)":"081812fc","isApprovedForAll(address,address)":"e985e9c5","name()":"06fdde03","ownerOf(uint256)":"6352211e","safeMint(address)":"40d097c3","safeTransferFrom(address,address,uint256)":"42842e0e","safeTransferFrom(address,address,uint256,bytes)":"b88d4fde","setApprovalForAll(address,bool)":"a22cb465","supportsInterface(bytes4)":"01ffc9a7","symbol()":"95d89b41","tokenURI(uint256)":"c87b56dd","transferFrom(address,address,uint256)":"23b872dd"},"id":4}